{
  "address": "0xE220cbb973B01B90662e7418916aE0d25c9671de",
  "abi": [
    {
      "inputs": [
        {
          "internalType": "contract IERC20",
          "name": "_btclpToken",
          "type": "address"
        },
        {
          "internalType": "contract IERC20",
          "name": "_nllToken",
          "type": "address"
        }
      ],
      "stateMutability": "nonpayable",
      "type": "constructor"
    },
    {
      "inputs": [
        {
          "internalType": "address",
          "name": "have",
          "type": "address"
        },
        {
          "internalType": "address",
          "name": "want",
          "type": "address"
        }
      ],
      "name": "OnlyCoordinatorCanFulfill",
      "type": "error"
    },
    {
      "inputs": [],
      "name": "OnlySimulatedBackend",
      "type": "error"
    },
    {
      "anonymous": false,
      "inputs": [
        {
          "indexed": false,
          "internalType": "address",
          "name": "claimer",
          "type": "address"
        },
        {
          "indexed": false,
          "internalType": "uint256",
          "name": "btclpAmount",
          "type": "uint256"
        }
      ],
      "name": "Claim",
      "type": "event"
    },
    {
      "anonymous": false,
      "inputs": [
        {
          "indexed": false,
          "internalType": "uint256",
          "name": "lotteryRoundNr",
          "type": "uint256"
        },
        {
          "indexed": false,
          "internalType": "uint256",
          "name": "totalTickets",
          "type": "uint256"
        },
        {
          "indexed": false,
          "internalType": "uint256",
          "name": "totalPlayers",
          "type": "uint256"
        }
      ],
      "name": "LotteryClose",
      "type": "event"
    },
    {
      "anonymous": false,
      "inputs": [
        {
          "indexed": false,
          "internalType": "uint256",
          "name": "lotteryRoundNr",
          "type": "uint256"
        },
        {
          "indexed": false,
          "internalType": "uint256[10]",
          "name": "winningTicketsNr",
          "type": "uint256[10]"
        },
        {
          "indexed": false,
          "internalType": "address[10]",
          "name": "winners",
          "type": "address[10]"
        }
      ],
      "name": "LotteryCompleted",
      "type": "event"
    },
    {
      "anonymous": false,
      "inputs": [
        {
          "indexed": false,
          "internalType": "uint256",
          "name": "lotteryRoundNr",
          "type": "uint256"
        }
      ],
      "name": "LotteryOpen",
      "type": "event"
    },
    {
      "anonymous": false,
      "inputs": [
        {
          "indexed": true,
          "internalType": "address",
          "name": "previousOwner",
          "type": "address"
        },
        {
          "indexed": true,
          "internalType": "address",
          "name": "newOwner",
          "type": "address"
        }
      ],
      "name": "OwnershipTransferred",
      "type": "event"
    },
    {
      "anonymous": false,
      "inputs": [
        {
          "indexed": false,
          "internalType": "address",
          "name": "token",
          "type": "address"
        },
        {
          "indexed": false,
          "internalType": "address",
          "name": "player",
          "type": "address"
        },
        {
          "indexed": false,
          "internalType": "uint256",
          "name": "tokens",
          "type": "uint256"
        },
        {
          "indexed": false,
          "internalType": "bytes",
          "name": "data",
          "type": "bytes"
        }
      ],
      "name": "TicketsPurchased",
      "type": "event"
    },
    {
      "inputs": [
        {
          "internalType": "address",
          "name": "consumerAddress",
          "type": "address"
        }
      ],
      "name": "addConsumer",
      "outputs": [],
      "stateMutability": "nonpayable",
      "type": "function"
    },
    {
      "inputs": [
        {
          "internalType": "address",
          "name": "receivingWallet",
          "type": "address"
        }
      ],
      "name": "cancelSubscription",
      "outputs": [],
      "stateMutability": "nonpayable",
      "type": "function"
    },
    {
      "inputs": [
        {
          "internalType": "bytes",
          "name": "",
          "type": "bytes"
        }
      ],
      "name": "checkUpkeep",
      "outputs": [
        {
          "internalType": "bool",
          "name": "upkeepNeeded",
          "type": "bool"
        },
        {
          "internalType": "bytes",
          "name": "performData",
          "type": "bytes"
        }
      ],
      "stateMutability": "view",
      "type": "function"
    },
    {
      "inputs": [
        {
          "internalType": "uint256",
          "name": "roundNr",
          "type": "uint256"
        }
      ],
      "name": "claim",
      "outputs": [
        {
          "internalType": "uint256",
          "name": "claimedBTCL",
          "type": "uint256"
        }
      ],
      "stateMutability": "nonpayable",
      "type": "function"
    },
    {
      "inputs": [],
      "name": "claimAll",
      "outputs": [
        {
          "internalType": "uint256",
          "name": "claimedBTCLP",
          "type": "uint256"
        }
      ],
      "stateMutability": "nonpayable",
      "type": "function"
    },
    {
      "inputs": [
        {
          "internalType": "uint256[]",
          "name": "randomValue",
          "type": "uint256[]"
        },
        {
          "internalType": "uint256",
          "name": "totalWinningTickets",
          "type": "uint256"
        },
        {
          "internalType": "uint256",
          "name": "totalWinners",
          "type": "uint256"
        }
      ],
      "name": "expand",
      "outputs": [
        {
          "internalType": "uint256[]",
          "name": "expandedValues",
          "type": "uint256[]"
        }
      ],
      "stateMutability": "pure",
      "type": "function"
    },
    {
      "inputs": [],
      "name": "finalRound",
      "outputs": [
        {
          "internalType": "bool",
          "name": "",
          "type": "bool"
        }
      ],
      "stateMutability": "view",
      "type": "function"
    },
    {
      "inputs": [],
      "name": "getBtclpPrice",
      "outputs": [
        {
          "internalType": "uint256",
          "name": "ticketPrice",
          "type": "uint256"
        }
      ],
      "stateMutability": "view",
      "type": "function"
    },
    {
      "inputs": [
        {
          "internalType": "uint256",
          "name": "nr",
          "type": "uint256"
        }
      ],
      "name": "getClaimableTokens",
      "outputs": [
        {
          "internalType": "uint256",
          "name": "btclp",
          "type": "uint256"
        },
        {
          "internalType": "uint256",
          "name": "nll",
          "type": "uint256"
        }
      ],
      "stateMutability": "view",
      "type": "function"
    },
    {
      "inputs": [],
      "name": "getCurrentBlockTime",
      "outputs": [
        {
          "internalType": "uint256",
          "name": "blockNr",
          "type": "uint256"
        }
      ],
      "stateMutability": "view",
      "type": "function"
    },
    {
      "inputs": [],
      "name": "getCurrentRoundEndRound",
      "outputs": [
        {
          "internalType": "bool",
          "name": "time",
          "type": "bool"
        }
      ],
      "stateMutability": "view",
      "type": "function"
    },
    {
      "inputs": [],
      "name": "getCurrentRoundNLLIgoRound",
      "outputs": [
        {
          "internalType": "bool",
          "name": "time",
          "type": "bool"
        }
      ],
      "stateMutability": "view",
      "type": "function"
    },
    {
      "inputs": [],
      "name": "getCurrentRoundTimeDiff",
      "outputs": [
        {
          "internalType": "uint256",
          "name": "time",
          "type": "uint256"
        }
      ],
      "stateMutability": "view",
      "type": "function"
    },
    {
      "inputs": [],
      "name": "getCurrentTime",
      "outputs": [
        {
          "internalType": "uint256",
          "name": "time",
          "type": "uint256"
        }
      ],
      "stateMutability": "view",
      "type": "function"
    },
    {
      "inputs": [
        {
          "internalType": "uint256",
          "name": "roundNr",
          "type": "uint256"
        },
        {
          "internalType": "uint256",
          "name": "nr",
          "type": "uint256"
        }
      ],
      "name": "getTicketNumber",
      "outputs": [
        {
          "internalType": "uint256",
          "name": "totalTickets",
          "type": "uint256"
        },
        {
          "internalType": "address",
          "name": "ticketNr",
          "type": "address"
        }
      ],
      "stateMutability": "view",
      "type": "function"
    },
    {
      "inputs": [
        {
          "internalType": "uint256",
          "name": "roundNr",
          "type": "uint256"
        }
      ],
      "name": "getWinners",
      "outputs": [
        {
          "internalType": "uint256[10]",
          "name": "luckyTicket",
          "type": "uint256[10]"
        },
        {
          "internalType": "address[10]",
          "name": "luckyWinner",
          "type": "address[10]"
        }
      ],
      "stateMutability": "view",
      "type": "function"
    },
    {
      "inputs": [],
      "name": "keyHash",
      "outputs": [
        {
          "internalType": "bytes32",
          "name": "",
          "type": "bytes32"
        }
      ],
      "stateMutability": "view",
      "type": "function"
    },
    {
      "inputs": [],
      "name": "link",
      "outputs": [
        {
          "internalType": "address",
          "name": "",
          "type": "address"
        }
      ],
      "stateMutability": "view",
      "type": "function"
    },
    {
      "inputs": [
        {
          "internalType": "address",
          "name": "_wallet",
          "type": "address"
        },
        {
          "internalType": "uint256",
          "name": "_value",
          "type": "uint256"
        },
        {
          "internalType": "bytes",
          "name": "_data",
          "type": "bytes"
        }
      ],
      "name": "onTokenTransfer",
      "outputs": [],
      "stateMutability": "nonpayable",
      "type": "function"
    },
    {
      "inputs": [],
      "name": "owner",
      "outputs": [
        {
          "internalType": "address",
          "name": "",
          "type": "address"
        }
      ],
      "stateMutability": "view",
      "type": "function"
    },
    {
      "inputs": [
        {
          "internalType": "bytes",
          "name": "performData",
          "type": "bytes"
        }
      ],
      "name": "performUpkeep",
      "outputs": [],
      "stateMutability": "nonpayable",
      "type": "function"
    },
    {
      "inputs": [
        {
          "internalType": "uint256",
          "name": "requestId",
          "type": "uint256"
        },
        {
          "internalType": "uint256[]",
          "name": "randomWords",
          "type": "uint256[]"
        }
      ],
      "name": "rawFulfillRandomWords",
      "outputs": [],
      "stateMutability": "nonpayable",
      "type": "function"
    },
    {
      "inputs": [
        {
          "internalType": "address",
          "name": "consumerAddress",
          "type": "address"
        }
      ],
      "name": "removeConsumer",
      "outputs": [],
      "stateMutability": "nonpayable",
      "type": "function"
    },
    {
      "inputs": [],
      "name": "renounceOwnership",
      "outputs": [],
      "stateMutability": "nonpayable",
      "type": "function"
    },
    {
      "inputs": [],
      "name": "rewardBurnRatio",
      "outputs": [
        {
          "internalType": "uint256",
          "name": "toReward",
          "type": "uint256"
        },
        {
          "internalType": "uint256",
          "name": "toBurn",
          "type": "uint256"
        },
        {
          "internalType": "bool",
          "name": "isFinalRound",
          "type": "bool"
        }
      ],
      "stateMutability": "view",
      "type": "function"
    },
    {
      "inputs": [],
      "name": "round",
      "outputs": [
        {
          "internalType": "uint256",
          "name": "",
          "type": "uint256"
        }
      ],
      "stateMutability": "view",
      "type": "function"
    },
    {
      "inputs": [
        {
          "internalType": "uint256",
          "name": "roundNr",
          "type": "uint256"
        }
      ],
      "name": "roundStats",
      "outputs": [
        {
          "internalType": "address[]",
          "name": "",
          "type": "address[]"
        },
        {
          "internalType": "uint256[]",
          "name": "",
          "type": "uint256[]"
        },
        {
          "internalType": "uint256[]",
          "name": "",
          "type": "uint256[]"
        }
      ],
      "stateMutability": "view",
      "type": "function"
    },
    {
      "inputs": [
        {
          "internalType": "uint256",
          "name": "",
          "type": "uint256"
        }
      ],
      "name": "rounds",
      "outputs": [
        {
          "internalType": "enum BTCLPDailyNoLossLotteryTokens.Status",
          "name": "lotteryStatus",
          "type": "uint8"
        },
        {
          "internalType": "uint256",
          "name": "requestId",
          "type": "uint256"
        },
        {
          "internalType": "uint256",
          "name": "startDate",
          "type": "uint256"
        },
        {
          "internalType": "uint256",
          "name": "endDate",
          "type": "uint256"
        },
        {
          "internalType": "uint256",
          "name": "totalUniquePlayers",
          "type": "uint256"
        },
        {
          "internalType": "uint256",
          "name": "totalTickets",
          "type": "uint256"
        }
      ],
      "stateMutability": "view",
      "type": "function"
    },
    {
      "inputs": [],
      "name": "startBlock",
      "outputs": [
        {
          "internalType": "uint256",
          "name": "",
          "type": "uint256"
        }
      ],
      "stateMutability": "view",
      "type": "function"
    },
    {
      "inputs": [],
      "name": "subscriptionId",
      "outputs": [
        {
          "internalType": "uint64",
          "name": "",
          "type": "uint64"
        }
      ],
      "stateMutability": "view",
      "type": "function"
    },
    {
      "inputs": [
        {
          "internalType": "uint256",
          "name": "amount",
          "type": "uint256"
        }
      ],
      "name": "topUpSubscription",
      "outputs": [],
      "stateMutability": "nonpayable",
      "type": "function"
    },
    {
      "inputs": [
        {
          "internalType": "address",
          "name": "newOwner",
          "type": "address"
        }
      ],
      "name": "transferOwnership",
      "outputs": [],
      "stateMutability": "nonpayable",
      "type": "function"
    },
    {
      "inputs": [],
      "name": "unclaimedTokens",
      "outputs": [
        {
          "internalType": "uint256",
          "name": "",
          "type": "uint256"
        }
      ],
      "stateMutability": "view",
      "type": "function"
    },
    {
      "inputs": [],
      "name": "vrfCoordinator",
      "outputs": [
        {
          "internalType": "address",
          "name": "",
          "type": "address"
        }
      ],
      "stateMutability": "view",
      "type": "function"
    },
    {
      "inputs": [
        {
          "internalType": "uint256",
          "name": "amount",
          "type": "uint256"
        },
        {
          "internalType": "address",
          "name": "to",
          "type": "address"
        }
      ],
      "name": "withdraw",
      "outputs": [],
      "stateMutability": "nonpayable",
      "type": "function"
    },
    {
      "inputs": [],
      "name": "withdrawBTCLP",
      "outputs": [],
      "stateMutability": "nonpayable",
      "type": "function"
    },
    {
      "inputs": [],
      "name": "withdrawLink",
      "outputs": [],
      "stateMutability": "nonpayable",
      "type": "function"
    }
  ],
  "transactionHash": "0x0722dc69ccf54e5e0ad2c45afcd9d194706d334db59cac36f2660fbb28030cfd",
  "args": [
    "0x73172A592733dA83C58884f968805f58c48461E8",
    "0x580D232675F9010c3C2eA39871346780EE618dAd"
  ],
  "numDeployments": 1,
  "solcInputHash": "c673e363a950d162cc4e095a7d22b92a",
  "bytecode": "0x60a0604052600780546001600160a01b0319908116736168499c0cffcacd319c818142124b7a15e857ab17909155600880549091167384b9b910527ad5c03a9ca831909e21e236ea7b061790557fd4bb89654db74673a187bd804519e65e3f71a52bc55f11da7601a13dcf50531460095543600b5561192e600d55670de0b6b3a7640000600e819055600f55601080546601000186a000036001600160501b0319909116179055348015620000b357600080fd5b506040516200334f3803806200334f833981016040819052620000d69162000419565b6007546001600160a01b0316620000ed33620001fa565b600180805560609190911b6001600160601b031916608052600280546001600160a01b03199081166001600160a01b038681169190911790925560038054909116918416919091179055600a81905560005260066020527f3e5fec24aa4dc4e5aee2e025e51e1392c72a2500577559fae9665c6d52bd6a31805460ff19169055427f3e5fec24aa4dc4e5aee2e025e51e1392c72a2500577559fae9665c6d52bd6a348190556200019f9060046200024a565b600a54600090815260066020526040902060049081019190915560075481546001600160a01b03199081166001600160a01b0392831617909255600854600580549093169116179055620001f26200027d565b5050620004d6565b600080546001600160a01b038381166001600160a01b0319831681178455604051919092169283917f8be0079c531659141344cd1fd0a4f28419497f9722a3daafe3b4186f6b6457e09190a35050565b6000603c6200025a81846200049e565b62000266908562000483565b9150838210156200027657600080fd5b5092915050565b6000546001600160a01b03163314620002dc5760405162461bcd60e51b815260206004820181905260248201527f4f776e61626c653a2063616c6c6572206973206e6f7420746865206f776e6572604482015260640160405180910390fd5b600480546040805163288688f960e21b815290516001600160a01b039092169263a21a23e49282820192602092908290030181600087803b1580156200032157600080fd5b505af115801562000336573d6000803e3d6000fd5b505050506040513d601f19601f820116820180604052508101906200035c919062000451565b60108054600160501b600160901b0319166a01000000000000000000006001600160401b039384168102919091179182905560048054604051631cd0704360e21b815292909304909316928101929092523060248301526001600160a01b031690637341c10c90604401600060405180830381600087803b158015620003e157600080fd5b505af1158015620003f6573d6000803e3d6000fd5b50505050565b80516001600160a01b03811681146200041457600080fd5b919050565b600080604083850312156200042d57600080fd5b6200043883620003fc565b91506200044860208401620003fc565b90509250929050565b6000602082840312156200046457600080fd5b81516001600160401b03811681146200047c57600080fd5b9392505050565b60008219821115620004995762000499620004c0565b500190565b6000816000190483118215151615620004bb57620004bb620004c0565b500290565b634e487b7160e01b600052601160045260246000fd5b60805160601c612e53620004fc600039600081816107aa01526107ec0152612e536000f3fe608060405234801561001057600080fd5b50600436106102265760003560e01c8063715018a6116101305780639e13ca3a116100b8578063cb193f4f1161007c578063cb193f4f14610591578063d1058e5914610599578063d2b0e28d146105a1578063ee827c3a146105a9578063f2fde38b146105b157600080fd5b80639e13ca3a146104e0578063a3e56fa814610504578063a4c0ed3614610517578063b4f11d7a1461052a578063c394f6cb1461058857600080fd5b80638c65c81f116100ff5780638c65c81f146104365780638da5cb5b1461048f5780638dc654a2146104a057806393d81d58146104a857806395dd4b44146104bb57600080fd5b8063715018a6146103f5578063772b4499146103fd57806386850e931461041d578063898403c31461043057600080fd5b806329cb924d116101b357806348cd4cb11161018257806348cd4cb11461039957806361728f39146103a257806368fecf3a146103ab5780636b1426a4146103b35780636e04ff0d146103d457600080fd5b806329cb924d14610365578063370057151461036b578063379607f5146103735780634585e33b1461038657600080fd5b8063146ca531116101fa578063146ca5311461029d5780631c4695f4146102b45780631fe543e3146102df578063257a0c39146102f2578063259d33c11461034357600080fd5b8062f714ce1461022b57806309c1ba2e146102405780630e27e3df14610277578063112940f91461028a575b600080fd5b61023e61023936600461291d565b6105c4565b005b60105461025a90600160501b90046001600160401b031681565b6040516001600160401b0390911681526020015b60405180910390f35b61023e610285366004612742565b610682565b61023e610298366004612742565b610729565b6102a6600a5481565b60405190815260200161026e565b6008546102c7906001600160a01b031681565b6040516001600160a01b03909116815260200161026e565b61023e6102ed366004612949565b61079f565b61032e6103003660046128eb565b6000908152600660209081526040808320338452601c8101835281842054601d909101909252909120549091565b6040805192835260208301919091520161026e565b6103566103513660046128eb565b610827565b60405161026e93929190612aa1565b426102a6565b6102a6610a59565b6102a66103813660046128eb565b610aa7565b61023e61039436600461287a565b610c21565b6102a6600b5481565b6102a660095481565b61023e610eb4565b6103c66103c13660046128eb565b61102d565b60405161026e929190612b0c565b6103e76103e236600461287a565b6110c9565b60405161026e929190612ba8565b61023e6111bf565b61041061040b36600461280b565b6111f3565b60405161026e9190612b73565b61023e61042b3660046128eb565b6112be565b436102a6565b61047d6104443660046128eb565b600660208190526000918252604090912080546001820154600383015460048401546005850154949095015460ff909316949193909286565b60405161026e96959493929190612bc3565b6000546001600160a01b03166102c7565b61023e6113a1565b61023e6104b6366004612742565b61140d565b6104c36114c7565b60408051938452602084019290925215159082015260600161026e565b6010546104f490600160901b900460ff1681565b604051901515815260200161026e565b6007546102c7906001600160a01b031681565b61023e61052536600461275d565b611600565b61056b61053836600461298f565b600091825260066020818152604080852092830154938552601b90920190529091205490916001600160a01b0390911690565b604080519283526001600160a01b0390911660208301520161026e565b6102a6600c5481565b6104f46116c1565b6102a66116e8565b6102a6611834565b6104f4611854565b61023e6105bf366004612742565b61186e565b6000546001600160a01b031633146105f75760405162461bcd60e51b81526004016105ee90612c21565b60405180910390fd5b60055460405163a9059cbb60e01b81526001600160a01b038381166004830152602482018590529091169063a9059cbb90604401602060405180830381600087803b15801561064557600080fd5b505af1158015610659573d6000803e3d6000fd5b505050506040513d601f19601f8201168201806040525081019061067d9190612858565b505050565b6000546001600160a01b031633146106ac5760405162461bcd60e51b81526004016105ee90612c21565b60048054601054604051639f87fad760e01b8152600160501b9091046001600160401b0316928101929092526001600160a01b0383811660248401521690639f87fad7906044015b600060405180830381600087803b15801561070e57600080fd5b505af1158015610722573d6000803e3d6000fd5b5050505050565b6000546001600160a01b031633146107535760405162461bcd60e51b81526004016105ee90612c21565b60048054601054604051631cd0704360e21b8152600160501b9091046001600160401b0316928101929092526001600160a01b0383811660248401521690637341c10c906044016106f4565b336001600160a01b037f000000000000000000000000000000000000000000000000000000000000000016146108195760405163073e64fd60e21b81523360048201526001600160a01b037f00000000000000000000000000000000000000000000000000000000000000001660248201526044016105ee565b6108238282611909565b5050565b60008181526006602090815260408051600a808252610160820190925260609384938493929083908201610140803683370190505090506000826001600160401b0381111561087857610878612e07565b6040519080825280602002602001820160405280156108a1578160200160208202803683370190505b5090506000836001600160401b038111156108be576108be612e07565b6040519080825280602002602001820160405280156108e7578160200160208202803683370190505b50905060005b84811015610a4c57600089815260066020526040902060110181600a811061091757610917612df1565b015482516001600160a01b039091169083908390811061093957610939612df1565b60200260200101906001600160a01b031690816001600160a01b031681525050600660008a8152602001908152602001600020601c01600083838151811061098357610983612df1565b60200260200101516001600160a01b03166001600160a01b03168152602001908152602001600020548482815181106109be576109be612df1565b602002602001018181525050600660008a8152602001908152602001600020601d0160008383815181106109f4576109f4612df1565b60200260200101516001600160a01b03166001600160a01b0316815260200190815260200160002054838281518110610a2f57610a2f612df1565b602090810291909101015280610a4481612d80565b9150506108ed565b5097919650945092505050565b600a54600090815260066020526040812060030154610a789042611d0b565b610a8a90670de0b6b3a7640000612d1e565b610a95906001612d1e565b600e54610aa29190612cf2565b905090565b600060026001541415610afc5760405162461bcd60e51b815260206004820152601f60248201527f5265656e7472616e637947756172643a207265656e7472616e742063616c6c0060448201526064016105ee565b6002600155600a548211610b525760405162461bcd60e51b815260206004820152601960248201527f5761697420756e74696c20726f756e642066696e69736865730000000000000060448201526064016105ee565b6000600b544310610bd4576000838152600660209081526040808320338452601c0190915290205415610bd45750600082815260066020908152604080832033808552601c90910190925282208054929055610bbc905b6002546001600160a01b03169083611d3a565b80600c6000828254610bce9190612d3d565b90915550505b7f47cee97cb7acd717b3c0aa1435d004cd5b3c8c57d70dbceb4e4458bbd60e39d433604080516001600160a01b039092168252602082018490520160405180910390a16001805592915050565b6000610c2f828401846128eb565b9050600a548114610c745760405162461bcd60e51b815260206004820152600f60248201526e2937bab7321036b4b9b6b0ba31b41760891b60448201526064016105ee565b600a54600090815260066020526040902060040154610c94906002611d8c565b4210158015610cc65750600a5460009081526006602052604081205460ff166002811115610cc457610cc4612ddb565b145b8015610cf857506002600a5460009081526006602052604090205460ff166002811115610cf557610cf5612ddb565b14155b8015610d195750600a80546000908152600660208190526040909120015410155b610d655760405162461bcd60e51b815260206004820181905260248201527f436f756c64206e6f7420647261772077696e6e696e6773207469636b6574732e60448201526064016105ee565b6001600a5460009081526006602052604090205460ff166002811115610d8d57610d8d612ddb565b5050600a546000818152600660208181526040928390209182015460059092015483519485529084019190915282820152517f104524d5df9ba599f13a8032241c54d240a29d8e298b141851c7514be1c51cc89181900360600190a1600480546009546010546040516305d3b1d360e41b8152938401919091526001600160401b03600160501b820416602484015261ffff8116604484015263ffffffff6201000082048116606485015266010000000000009091041660848301526001600160a01b031690635d3b1d309060a401602060405180830381600087803b158015610e7657600080fd5b505af1158015610e8a573d6000803e3d6000fd5b505050506040513d601f19601f82011682018060405250810190610eae9190612904565b50505050565b6000546001600160a01b03163314610ede5760405162461bcd60e51b81526004016105ee90612c21565b6002546001600160a01b031663a9059cbb336002546040516370a0823160e01b81523060048201526001600160a01b03909116906370a08231906024015b60206040518083038186803b158015610f3457600080fd5b505afa158015610f48573d6000803e3d6000fd5b505050506040513d601f19601f82011682018060405250810190610f6c9190612904565b6040516001600160e01b031960e085901b1681526001600160a01b0390921660048301526024820152604401602060405180830381600087803b158015610fb257600080fd5b505af1158015610fc6573d6000803e3d6000fd5b505050506040513d601f19601f82011682018060405250810190610fea9190612858565b61102b5760405162461bcd60e51b81526020600482015260126024820152712ab730b13632903a37903a3930b739b332b960711b60448201526064016105ee565b565b611035612622565b61103d612622565b60008381526006602052604090819020815161014081019283905260078201926011909201918390600a9082845b81548152602001906001019080831161106b57505060408051610140810191829052949650859350600a9250905082845b81546001600160a01b0316815260019091019060200180831161109c575050505050905091509150915091565b600a5460009081526006602052604081206004015460609042906110ee906002611d8c565b1115801561110e5750600a54600090815260066020526040902060010154155b801561113d5750600a5460009081526006602052604081205460ff16600281111561113b5761113b612ddb565b145b801561116f57506002600a5460009081526006602052604090205460ff16600281111561116c5761116c612ddb565b14155b80156111905750600a80546000908152600660208190526040909120015410155b9150600a546040516020016111a791815260200190565b60405160208183030381529060405290509250929050565b6000546001600160a01b031633146111e95760405162461bcd60e51b81526004016105ee90612c21565b61102b6000611dba565b6060816001600160401b0381111561120d5761120d612e07565b604051908082528060200260200182016040528015611236578160200160208202803683370190505b50905060005b828110156112b557838582604051602001611258929190612b86565b6040516020818303038152906040528051906020012060001c61127b9190612d9b565b611286906001612cf2565b82828151811061129857611298612df1565b6020908102919091010152806112ad81612d80565b91505061123c565b505b9392505050565b6000546001600160a01b031633146112e85760405162461bcd60e51b81526004016105ee90612c21565b60055460045460105460408051600160501b9092046001600160401b031660208301526001600160a01b0393841693634000aea09316918591016040516020818303038152906040526040518463ffffffff1660e01b815260040161134f93929190612a71565b602060405180830381600087803b15801561136957600080fd5b505af115801561137d573d6000803e3d6000fd5b505050506040513d601f19601f820116820180604052508101906108239190612858565b6000546001600160a01b031633146113cb5760405162461bcd60e51b81526004016105ee90612c21565b6005546001600160a01b031663a9059cbb336005546040516370a0823160e01b81523060048201526001600160a01b03909116906370a0823190602401610f1c565b6000546001600160a01b031633146114375760405162461bcd60e51b81526004016105ee90612c21565b60048054601054604051630d7ae1d360e41b8152600160501b9091046001600160401b0316928101929092526001600160a01b038381166024840152169063d7ae1d3090604401600060405180830381600087803b15801561149857600080fd5b505af11580156114ac573d6000803e3d6000fd5b50506010805467ffffffffffffffff60501b19169055505050565b60008060008069eb436e4125b92860000090506000600a54683635c9adc5dea000006114f39190612d1e565b905060006115018284612d3d565b600c546002546040516370a0823160e01b81523060048201529293506000926001600160a01b03909116906370a082319060240160206040518083038186803b15801561154d57600080fd5b505afa158015611561573d6000803e3d6000fd5b505050506040513d601f19601f820116820180604052508101906115859190612904565b61158f9190612d3d565b90508061159d836002612d1e565b116115bb576115ad600a83612d0a565b9650819550600094506115f7565b806115c7836002612d1e565b106115f757600a6115d9600283612d0a565b6115e39190612d0a565b96506115f0600282612d0a565b9550600194505b50505050909192565b601054600160901b900460ff16156116a65760405162461bcd60e51b815260206004820152605a60248201527f546865206461696c79204254434c50204e6f204c6f7373204c6f74746572792060448201527f686173207375636365737366756c6c7920646973747269627574656420616c6c60648201527f203430312e3530302e303030204254434c5020546f6b656e7321000000000000608482015260a4016105ee565b60006116b0610a59565b9050610eae848483600a5486611e0a565b600a546000908152600660205260408120600401546116e1426002612389565b1015905090565b60006002600154141561173d5760405162461bcd60e51b815260206004820152601f60248201527f5265656e7472616e637947756172643a207265656e7472616e742063616c6c0060448201526064016105ee565b600260019081556000905b600a5481116117bd57600b5443106117ab576000818152600660209081526040808320338452601c01909152902054156117ab576000818152600660209081526040808320338452601c01909152812080549190556117a78184612cf2565b9250505b806117b581612d80565b915050611748565b50600b5443106117e8576117d033610ba9565b80600c60008282546117e29190612d3d565b90915550505b7f47cee97cb7acd717b3c0aa1435d004cd5b3c8c57d70dbceb4e4458bbd60e39d433604080516001600160a01b039092168252602082018490520160405180910390a190506001805590565b600a54600090815260066020526040812060040154610aa2904290612d3d565b6000600d54600b546118669190612cf2565b431015905090565b6000546001600160a01b031633146118985760405162461bcd60e51b81526004016105ee90612c21565b6001600160a01b0381166118fd5760405162461bcd60e51b815260206004820152602660248201527f4f776e61626c653a206e6577206f776e657220697320746865207a65726f206160448201526564647265737360d01b60648201526084016105ee565b61190681611dba565b50565b600a8054600090815260066020819052604082200154909161192c9184916111f3565b9050600080600061193b6114c7565b92509250925060005b600a80546000526006602052811015611ad157600060066000600a548152602001908152602001600020601b01600087848151811061198557611985612df1565b6020026020010151815260200190815260200160002060009054906101000a90046001600160a01b031690508060066000600a54815260200190815260200160002060110183600a81106119db576119db612df1565b0160006101000a8154816001600160a01b0302191690836001600160a01b03160217905550858281518110611a1257611a12612df1565b602002602001015160066000600a54815260200190815260200160002060070183600a8110611a4357611a43612df1565b0155600a5460009081526006602090815260408083206001600160a01b0385168452601c01909152902054611a79908690612cf2565b600a5460009081526006602090815260408083206001600160a01b0386168452601c01909152812091909155600c8054879290611ab7908490612cf2565b90915550829150611ac9905081612d80565b915050611944565b50600254604051602481018490526000916001600160a01b03169060440160408051601f198184030181529181526020820180516001600160e01b0316630852cd8d60e31b17905251611b249190612a18565b6000604051808303816000865af19150503d8060008114611b61576040519150601f19603f3d011682016040523d82523d6000602084013e611b66565b606091505b5050905080611ba35760405162461bcd60e51b8152602060048201526009602482015268189d5c9b881190525360ba1b60448201526064016105ee565b600a80546000908152600660209081526040808320805460ff19166002908117909155935483529091208851611be0939190910191890190612641565b50600a80546000908152600660205260408082206001018a905591548082529082902091517fb1709845312b898b2ee2b26420878140caac0d12c5debd92b46089f83bd1e33b92611c3a9291600782019160110190612c56565b60405180910390a18115611c60576010805460ff60901b1916600160901b179055611d02565b600a54611c6e906001612cf2565b600a818155600091825260066020526040808320805460ff191690558154835280832042600391820155915483529091200154611cac906004612389565b600a805460009081526006602052604090819020600401929092555490517ff4885742b80fc966577b7a9182bdcbd78d52622fef47fabbd28ceb2459ecf3e691611cf99190815260200190565b60405180910390a15b50505050505050565b600081831115611d1a57600080fd5b610e1080611d288585612d3d565b611d329190612d0a565b949350505050565b604080516001600160a01b038416602482015260448082018490528251808303909101815260649091019091526020810180516001600160e01b031663a9059cbb60e01b17905261067d9084906123b0565b6000603c611d9a8184612d1e565b611da49085612d3d565b915083821115611db357600080fd5b5092915050565b600080546001600160a01b038381166001600160a01b0319831681178455604051919092169283917f8be0079c531659141344cd1fd0a4f28419497f9722a3daafe3b4186f6b6457e09190a35050565b60008281526006602090815260408083206001600160a01b0389168452601e0190915290205460ff16611e925760008281526006602081815260408084206001600160a01b038a168552601e81018352908420805460ff191660019081179091559386905291905260050154611e7f91612cf2565b6000838152600660205260409020600501555b6002546001600160a01b0316336001600160a01b031614156120b357611eb88385612d9b565b15611f5f5760405162461bcd60e51b815260206004820152606560248201527f546865204461696c79204e6f204c6f7373204c6f74746572792061636365707460448201527f73206d756c7469706c652031323030204254434c50202b20486f75726c79206960648201527f6e63726561736573206f66203530204254434c5020666f72206561636820636860848201526430b731b29760d91b60a482015260c4016105ee565b60fa611f6b8486612d0a565b1115611fdf5760405162461bcd60e51b815260206004820152603b60248201527f4d617820323530205469636b6574732063616e2062652072657365727665642060448201527f6174206f6e6365207573696e67204254434c5020546f6b656e732e000000000060648201526084016105ee565b611ff285611fed8587612d0a565b612482565b60008281526006602090815260408083206001600160a01b0389168452601c01909152902054612023908590612cf2565b60008381526006602090815260408083206001600160a01b038a168452601c01909152812091909155600c805486929061205e908490612cf2565b90915550506002546040517f352e8720c9d6f92657a8e1c63eff306530ef7e72ddb33efa5bf5991621d10a6f916120a6916001600160a01b0390911690889088908690612a34565b60405180910390a1610722565b6003546001600160a01b0316336001600160a01b0316141561234157600f546120dc9085612d9b565b156121355760405162461bcd60e51b815260206004820152602360248201527f31204e4c4c20546f6b656e203d2031204368616e636520617420616e7920746960448201526236b29760e91b60648201526084016105ee565b60fa600f54856121459190612d0a565b11156121b95760405162461bcd60e51b815260206004820152603960248201527f4d617820323530205469636b6574732063616e2062652072657365727665642060448201527f6174206f6e6365207573696e67204e4c4c20546f6b656e732e0000000000000060648201526084016105ee565b6121cb85600f5486611fed9190612d0a565b60008281526006602090815260408083206001600160a01b0389168452601d019091529020546121fc908590612cf2565b60008381526006602090815260408083206001600160a01b038a81168552601d909101909252808320939093556003549251602481018890529192169060440160408051601f198184030181529181526020820180516001600160e01b0316630852cd8d60e31b179052516122719190612a18565b6000604051808303816000865af19150503d80600081146122ae576040519150601f19603f3d011682016040523d82523d6000602084013e6122b3565b606091505b50509050806122f05760405162461bcd60e51b8152602060048201526009602482015268189d5c9b881190525360ba1b60448201526064016105ee565b6003546040517f352e8720c9d6f92657a8e1c63eff306530ef7e72ddb33efa5bf5991621d10a6f91612333916001600160a01b0390911690899089908790612a34565b60405180910390a150610722565b60405162461bcd60e51b815260206004820152601f60248201527f50726f766964656420616d6f756e747320617265206e6f742076616c69642e0060448201526064016105ee565b6000603c6123978184612d1e565b6123a19085612cf2565b915083821015611db357600080fd5b6000612405826040518060400160405280602081526020017f5361666545524332303a206c6f772d6c6576656c2063616c6c206661696c6564815250856001600160a01b031661250e9092919063ffffffff16565b80519091501561067d57808060200190518101906124239190612858565b61067d5760405162461bcd60e51b815260206004820152602a60248201527f5361666545524332303a204552433230206f7065726174696f6e20646964206e6044820152691bdd081cdd58d8d9595960b21b60648201526084016105ee565b600a5460009081526006602081905260409091209081015460015b8381116124f55784601b840160006124b58486612cf2565b8152602081019190915260400160002080546001600160a01b0319166001600160a01b0392909216919091179055806124ed81612d80565b91505061249d565b506125008382612cf2565b826006018190555050505050565b6060611d328484600085856001600160a01b0385163b6125705760405162461bcd60e51b815260206004820152601d60248201527f416464726573733a2063616c6c20746f206e6f6e2d636f6e747261637400000060448201526064016105ee565b600080866001600160a01b0316858760405161258c9190612a18565b60006040518083038185875af1925050503d80600081146125c9576040519150601f19603f3d011682016040523d82523d6000602084013e6125ce565b606091505b50915091506125de8282866125e9565b979650505050505050565b606083156125f85750816112b7565b8251156126085782518084602001fd5b8160405162461bcd60e51b81526004016105ee9190612c0e565b604051806101400160405280600a906020820280368337509192915050565b82805482825590600052602060002090810192821561267c579160200282015b8281111561267c578251825591602001919060010190612661565b5061268892915061268c565b5090565b5b80821115612688576000815560010161268d565b80356001600160a01b03811681146126b857600080fd5b919050565b600082601f8301126126ce57600080fd5b813560206001600160401b038211156126e9576126e9612e07565b8160051b6126f8828201612cc2565b83815282810190868401838801850189101561271357600080fd5b600093505b85841015612736578035835260019390930192918401918401612718565b50979650505050505050565b60006020828403121561275457600080fd5b6112b7826126a1565b60008060006060848603121561277257600080fd5b61277b846126a1565b9250602080850135925060408501356001600160401b038082111561279f57600080fd5b818701915087601f8301126127b357600080fd5b8135818111156127c5576127c5612e07565b6127d7601f8201601f19168501612cc2565b915080825288848285010111156127ed57600080fd5b80848401858401376000848284010152508093505050509250925092565b60008060006060848603121561282057600080fd5b83356001600160401b0381111561283657600080fd5b612842868287016126bd565b9660208601359650604090950135949350505050565b60006020828403121561286a57600080fd5b815180151581146112b757600080fd5b6000806020838503121561288d57600080fd5b82356001600160401b03808211156128a457600080fd5b818501915085601f8301126128b857600080fd5b8135818111156128c757600080fd5b8660208285010111156128d957600080fd5b60209290920196919550909350505050565b6000602082840312156128fd57600080fd5b5035919050565b60006020828403121561291657600080fd5b5051919050565b6000806040838503121561293057600080fd5b82359150612940602084016126a1565b90509250929050565b6000806040838503121561295c57600080fd5b8235915060208301356001600160401b0381111561297957600080fd5b612985858286016126bd565b9150509250929050565b600080604083850312156129a257600080fd5b50508035926020909101359150565b600081518084526020808501945080840160005b838110156129e1578151875295820195908201906001016129c5565b509495945050505050565b60008151808452612a04816020860160208601612d54565b601f01601f19169290920160200192915050565b60008251612a2a818460208701612d54565b9190910192915050565b6001600160a01b0385811682528416602082015260408101839052608060608201819052600090612a67908301846129ec565b9695505050505050565b60018060a01b0384168152826020820152606060408201526000612a9860608301846129ec565b95945050505050565b606080825284519082018190526000906020906080840190828801845b82811015612ae35781516001600160a01b031684529284019290840190600101612abe565b50505083810382850152612af781876129b1565b9150508281036040840152612a6781856129b1565b6102808101818460005b600a811015612b35578151835260209283019290910190600101612b16565b50505061014082018360005b600a811015612b695781516001600160a01b0316835260209283019290910190600101612b41565b5050509392505050565b6020815260006112b760208301846129b1565b604081526000612b9960408301856129b1565b90508260208301529392505050565b8215158152604060208201526000611d3260408301846129ec565b60c0810160038810612be557634e487b7160e01b600052602160045260246000fd5b968152602081019590955260408501939093526060840191909152608083015260a09091015290565b6020815260006112b760208301846129ec565b6020808252818101527f4f776e61626c653a2063616c6c6572206973206e6f7420746865206f776e6572604082015260600190565b8381526102a0810160208083018560005b600a811015612c8457815483529183019160019182019101612c67565b50505061016083018460005b600a811015612cb65781546001600160a01b031683529183019160019182019101612c90565b50505050949350505050565b604051601f8201601f191681016001600160401b0381118282101715612cea57612cea612e07565b604052919050565b60008219821115612d0557612d05612daf565b500190565b600082612d1957612d19612dc5565b500490565b6000816000190483118215151615612d3857612d38612daf565b500290565b600082821015612d4f57612d4f612daf565b500390565b60005b83811015612d6f578181015183820152602001612d57565b83811115610eae5750506000910152565b6000600019821415612d9457612d94612daf565b5060010190565b600082612daa57612daa612dc5565b500690565b634e487b7160e01b600052601160045260246000fd5b634e487b7160e01b600052601260045260246000fd5b634e487b7160e01b600052602160045260246000fd5b634e487b7160e01b600052603260045260246000fd5b634e487b7160e01b600052604160045260246000fdfea2646970667358221220e0ef46747ba7084a69a760f21ca3ddc0643ec3f6853778ab150cf7154840d54c64736f6c63430008070033",
  "devdoc": {
    "kind": "dev",
    "methods": {
      "checkUpkeep(bytes)": {
        "details": "ChainLink Keepers function that checks if round draw conditions have been met and initiates draw when they are true. return bool upkeepNeeded if random winning tickets are ready to be drawn. return bytes performData contain the current encoded round number."
      },
      "claim(uint256)": {
        "details": "Claim locked tokens + rewards from a specific round.",
        "params": {
          "roundNr": "Desired round number. returns claimed BTCL Tokens."
        }
      },
      "claimAll()": {
        "details": "Claim locked tokens + rewards from all rounds.",
        "returns": {
          "claimedBTCLP": "and claimnedNLL"
        }
      },
      "expand(uint256[],uint256,uint256)": {
        "details": "Helper function for ChainLink VRF that extracts multiple random winning tickets from random entropy sources. return array of winning tickets."
      },
      "getBtclpPrice()": {
        "custom:time": "every hour entry price increases by 1 BTCLP Tokens for each chance",
        "details": "Get 1 Ticket Price with BTCLP Tokens."
      },
      "getTicketNumber(uint256,uint256)": {
        "details": "Helper function used to view ticket number ownership.",
        "params": {
          "nr": "The ticket slot numbers return totalTickets the total Number tickets purchased in the round selected return ticketNr the address of the player that owns the round ticket",
          "roundNr": "The round from which we want to inspect ticket slots"
        }
      },
      "getWinners(uint256)": {
        "details": "Get Round Winners returns luckyTickets and luckyWinners"
      },
      "onTokenTransfer(address,uint256,bytes)": {
        "details": "ERC677 TokenFallback Function.",
        "params": {
          "_data": "The transaction metadata.",
          "_value": "The amount of tokens sent by the player to the BTCLP Daily No Loss Lottery Contract.",
          "_wallet": "The player address that sent tokens to the BTCLP Daily No Loss Lottery Contract."
        }
      },
      "owner()": {
        "details": "Returns the address of the current owner."
      },
      "performUpkeep(bytes)": {
        "details": "ChainLink Keepers function that is executed by the Chainlink Keeper.",
        "params": {
          "performData": "encoded round number sent over from checkUpKeep"
        }
      },
      "renounceOwnership()": {
        "details": "Leaves the contract without owner. It will not be possible to call `onlyOwner` functions anymore. Can only be called by the current owner. NOTE: Renouncing ownership will leave the contract without an owner, thereby removing any functionality that is only available to the owner."
      },
      "roundStats(uint256)": {
        "details": "Helper function that is used to display winner addresses, contributions and lucky bonuses won",
        "params": {
          "roundNr": "Desired round number."
        },
        "returns": {
          "_0": "bool Function returns round winners statistics."
        }
      },
      "transferOwnership(address)": {
        "details": "Transfers ownership of the contract to a new account (`newOwner`). Can only be called by the current owner."
      },
      "withdrawBTCLP()": {
        "details": "Helper function used to withdraw remaining LINK Tokens after all Daily Games have finished."
      },
      "withdrawLink()": {
        "details": "Helper function used to withdraw remaining LINK Tokens after all Daily Games have finished."
      }
    },
    "version": 1
  },
  "userdoc": {
    "kind": "user",
    "methods": {},
    "version": 1
  },
  "storageLayout": {
    "storage": [
      {
        "astId": 689,
        "contract": "contracts/BTCLPDailyNoLossLotteryTokens.sol:BTCLPDailyNoLossLotteryTokens",
        "label": "_owner",
        "offset": 0,
        "slot": "0",
        "type": "t_address"
      },
      {
        "astId": 3712,
        "contract": "contracts/BTCLPDailyNoLossLotteryTokens.sol:BTCLPDailyNoLossLotteryTokens",
        "label": "_status",
        "offset": 0,
        "slot": "1",
        "type": "t_uint256"
      },
      {
        "astId": 9711,
        "contract": "contracts/BTCLPDailyNoLossLotteryTokens.sol:BTCLPDailyNoLossLotteryTokens",
        "label": "btclpToken",
        "offset": 0,
        "slot": "2",
        "type": "t_contract(IERC20)4407"
      },
      {
        "astId": 9714,
        "contract": "contracts/BTCLPDailyNoLossLotteryTokens.sol:BTCLPDailyNoLossLotteryTokens",
        "label": "nllToken",
        "offset": 0,
        "slot": "3",
        "type": "t_contract(IERC20)4407"
      },
      {
        "astId": 9717,
        "contract": "contracts/BTCLPDailyNoLossLotteryTokens.sol:BTCLPDailyNoLossLotteryTokens",
        "label": "COORDINATOR",
        "offset": 0,
        "slot": "4",
        "type": "t_contract(VRFCoordinatorV2Interface)299"
      },
      {
        "astId": 9720,
        "contract": "contracts/BTCLPDailyNoLossLotteryTokens.sol:BTCLPDailyNoLossLotteryTokens",
        "label": "LINKTOKEN",
        "offset": 0,
        "slot": "5",
        "type": "t_contract(LinkTokenInterface)210"
      },
      {
        "astId": 9810,
        "contract": "contracts/BTCLPDailyNoLossLotteryTokens.sol:BTCLPDailyNoLossLotteryTokens",
        "label": "rounds",
        "offset": 0,
        "slot": "6",
        "type": "t_mapping(t_uint256,t_struct(Round)9805_storage)"
      },
      {
        "astId": 9813,
        "contract": "contracts/BTCLPDailyNoLossLotteryTokens.sol:BTCLPDailyNoLossLotteryTokens",
        "label": "vrfCoordinator",
        "offset": 0,
        "slot": "7",
        "type": "t_address"
      },
      {
        "astId": 9816,
        "contract": "contracts/BTCLPDailyNoLossLotteryTokens.sol:BTCLPDailyNoLossLotteryTokens",
        "label": "link",
        "offset": 0,
        "slot": "8",
        "type": "t_address"
      },
      {
        "astId": 9819,
        "contract": "contracts/BTCLPDailyNoLossLotteryTokens.sol:BTCLPDailyNoLossLotteryTokens",
        "label": "keyHash",
        "offset": 0,
        "slot": "9",
        "type": "t_bytes32"
      },
      {
        "astId": 9821,
        "contract": "contracts/BTCLPDailyNoLossLotteryTokens.sol:BTCLPDailyNoLossLotteryTokens",
        "label": "round",
        "offset": 0,
        "slot": "10",
        "type": "t_uint256"
      },
      {
        "astId": 9825,
        "contract": "contracts/BTCLPDailyNoLossLotteryTokens.sol:BTCLPDailyNoLossLotteryTokens",
        "label": "startBlock",
        "offset": 0,
        "slot": "11",
        "type": "t_uint256"
      },
      {
        "astId": 9827,
        "contract": "contracts/BTCLPDailyNoLossLotteryTokens.sol:BTCLPDailyNoLossLotteryTokens",
        "label": "unclaimedTokens",
        "offset": 0,
        "slot": "12",
        "type": "t_uint256"
      },
      {
        "astId": 9830,
        "contract": "contracts/BTCLPDailyNoLossLotteryTokens.sol:BTCLPDailyNoLossLotteryTokens",
        "label": "blocksPerDay",
        "offset": 0,
        "slot": "13",
        "type": "t_uint256"
      },
      {
        "astId": 9835,
        "contract": "contracts/BTCLPDailyNoLossLotteryTokens.sol:BTCLPDailyNoLossLotteryTokens",
        "label": "btclpEntry",
        "offset": 0,
        "slot": "14",
        "type": "t_uint256"
      },
      {
        "astId": 9840,
        "contract": "contracts/BTCLPDailyNoLossLotteryTokens.sol:BTCLPDailyNoLossLotteryTokens",
        "label": "nllEntry",
        "offset": 0,
        "slot": "15",
        "type": "t_uint256"
      },
      {
        "astId": 9843,
        "contract": "contracts/BTCLPDailyNoLossLotteryTokens.sol:BTCLPDailyNoLossLotteryTokens",
        "label": "requestConfirmations",
        "offset": 0,
        "slot": "16",
        "type": "t_uint16"
      },
      {
        "astId": 9846,
        "contract": "contracts/BTCLPDailyNoLossLotteryTokens.sol:BTCLPDailyNoLossLotteryTokens",
        "label": "callbackGasLimit",
        "offset": 2,
        "slot": "16",
        "type": "t_uint32"
      },
      {
        "astId": 9849,
        "contract": "contracts/BTCLPDailyNoLossLotteryTokens.sol:BTCLPDailyNoLossLotteryTokens",
        "label": "numWords",
        "offset": 6,
        "slot": "16",
        "type": "t_uint32"
      },
      {
        "astId": 9851,
        "contract": "contracts/BTCLPDailyNoLossLotteryTokens.sol:BTCLPDailyNoLossLotteryTokens",
        "label": "subscriptionId",
        "offset": 10,
        "slot": "16",
        "type": "t_uint64"
      },
      {
        "astId": 9853,
        "contract": "contracts/BTCLPDailyNoLossLotteryTokens.sol:BTCLPDailyNoLossLotteryTokens",
        "label": "finalRound",
        "offset": 18,
        "slot": "16",
        "type": "t_bool"
      }
    ],
    "types": {
      "t_address": {
        "encoding": "inplace",
        "label": "address",
        "numberOfBytes": "20"
      },
      "t_array(t_address)10_storage": {
        "base": "t_address",
        "encoding": "inplace",
        "label": "address[10]",
        "numberOfBytes": "320"
      },
      "t_array(t_uint256)10_storage": {
        "base": "t_uint256",
        "encoding": "inplace",
        "label": "uint256[10]",
        "numberOfBytes": "320"
      },
      "t_array(t_uint256)dyn_storage": {
        "base": "t_uint256",
        "encoding": "dynamic_array",
        "label": "uint256[]",
        "numberOfBytes": "32"
      },
      "t_bool": {
        "encoding": "inplace",
        "label": "bool",
        "numberOfBytes": "1"
      },
      "t_bytes32": {
        "encoding": "inplace",
        "label": "bytes32",
        "numberOfBytes": "32"
      },
      "t_contract(IERC20)4407": {
        "encoding": "inplace",
        "label": "contract IERC20",
        "numberOfBytes": "20"
      },
      "t_contract(LinkTokenInterface)210": {
        "encoding": "inplace",
        "label": "contract LinkTokenInterface",
        "numberOfBytes": "20"
      },
      "t_contract(VRFCoordinatorV2Interface)299": {
        "encoding": "inplace",
        "label": "contract VRFCoordinatorV2Interface",
        "numberOfBytes": "20"
      },
      "t_enum(Status)9764": {
        "encoding": "inplace",
        "label": "enum BTCLPDailyNoLossLotteryTokens.Status",
        "numberOfBytes": "1"
      },
      "t_mapping(t_address,t_bool)": {
        "encoding": "mapping",
        "key": "t_address",
        "label": "mapping(address => bool)",
        "numberOfBytes": "32",
        "value": "t_bool"
      },
      "t_mapping(t_address,t_uint256)": {
        "encoding": "mapping",
        "key": "t_address",
        "label": "mapping(address => uint256)",
        "numberOfBytes": "32",
        "value": "t_uint256"
      },
      "t_mapping(t_uint256,t_address)": {
        "encoding": "mapping",
        "key": "t_uint256",
        "label": "mapping(uint256 => address)",
        "numberOfBytes": "32",
        "value": "t_address"
      },
      "t_mapping(t_uint256,t_struct(Round)9805_storage)": {
        "encoding": "mapping",
        "key": "t_uint256",
        "label": "mapping(uint256 => struct BTCLPDailyNoLossLotteryTokens.Round)",
        "numberOfBytes": "32",
        "value": "t_struct(Round)9805_storage"
      },
      "t_struct(Round)9805_storage": {
        "encoding": "inplace",
        "label": "struct BTCLPDailyNoLossLotteryTokens.Round",
        "members": [
          {
            "astId": 9767,
            "contract": "contracts/BTCLPDailyNoLossLotteryTokens.sol:BTCLPDailyNoLossLotteryTokens",
            "label": "lotteryStatus",
            "offset": 0,
            "slot": "0",
            "type": "t_enum(Status)9764"
          },
          {
            "astId": 9769,
            "contract": "contracts/BTCLPDailyNoLossLotteryTokens.sol:BTCLPDailyNoLossLotteryTokens",
            "label": "requestId",
            "offset": 0,
            "slot": "1",
            "type": "t_uint256"
          },
          {
            "astId": 9772,
            "contract": "contracts/BTCLPDailyNoLossLotteryTokens.sol:BTCLPDailyNoLossLotteryTokens",
            "label": "randomResult",
            "offset": 0,
            "slot": "2",
            "type": "t_array(t_uint256)dyn_storage"
          },
          {
            "astId": 9774,
            "contract": "contracts/BTCLPDailyNoLossLotteryTokens.sol:BTCLPDailyNoLossLotteryTokens",
            "label": "startDate",
            "offset": 0,
            "slot": "3",
            "type": "t_uint256"
          },
          {
            "astId": 9776,
            "contract": "contracts/BTCLPDailyNoLossLotteryTokens.sol:BTCLPDailyNoLossLotteryTokens",
            "label": "endDate",
            "offset": 0,
            "slot": "4",
            "type": "t_uint256"
          },
          {
            "astId": 9778,
            "contract": "contracts/BTCLPDailyNoLossLotteryTokens.sol:BTCLPDailyNoLossLotteryTokens",
            "label": "totalUniquePlayers",
            "offset": 0,
            "slot": "5",
            "type": "t_uint256"
          },
          {
            "astId": 9780,
            "contract": "contracts/BTCLPDailyNoLossLotteryTokens.sol:BTCLPDailyNoLossLotteryTokens",
            "label": "totalTickets",
            "offset": 0,
            "slot": "6",
            "type": "t_uint256"
          },
          {
            "astId": 9784,
            "contract": "contracts/BTCLPDailyNoLossLotteryTokens.sol:BTCLPDailyNoLossLotteryTokens",
            "label": "luckyTickets",
            "offset": 0,
            "slot": "7",
            "type": "t_array(t_uint256)10_storage"
          },
          {
            "astId": 9788,
            "contract": "contracts/BTCLPDailyNoLossLotteryTokens.sol:BTCLPDailyNoLossLotteryTokens",
            "label": "winners",
            "offset": 0,
            "slot": "17",
            "type": "t_array(t_address)10_storage"
          },
          {
            "astId": 9792,
            "contract": "contracts/BTCLPDailyNoLossLotteryTokens.sol:BTCLPDailyNoLossLotteryTokens",
            "label": "ticketNr",
            "offset": 0,
            "slot": "27",
            "type": "t_mapping(t_uint256,t_address)"
          },
          {
            "astId": 9796,
            "contract": "contracts/BTCLPDailyNoLossLotteryTokens.sol:BTCLPDailyNoLossLotteryTokens",
            "label": "totalBTCLP",
            "offset": 0,
            "slot": "28",
            "type": "t_mapping(t_address,t_uint256)"
          },
          {
            "astId": 9800,
            "contract": "contracts/BTCLPDailyNoLossLotteryTokens.sol:BTCLPDailyNoLossLotteryTokens",
            "label": "totalNLL",
            "offset": 0,
            "slot": "29",
            "type": "t_mapping(t_address,t_uint256)"
          },
          {
            "astId": 9804,
            "contract": "contracts/BTCLPDailyNoLossLotteryTokens.sol:BTCLPDailyNoLossLotteryTokens",
            "label": "isUnique",
            "offset": 0,
            "slot": "30",
            "type": "t_mapping(t_address,t_bool)"
          }
        ],
        "numberOfBytes": "992"
      },
      "t_uint16": {
        "encoding": "inplace",
        "label": "uint16",
        "numberOfBytes": "2"
      },
      "t_uint256": {
        "encoding": "inplace",
        "label": "uint256",
        "numberOfBytes": "32"
      },
      "t_uint32": {
        "encoding": "inplace",
        "label": "uint32",
        "numberOfBytes": "4"
      },
      "t_uint64": {
        "encoding": "inplace",
        "label": "uint64",
        "numberOfBytes": "8"
      }
    }
  }
}