{
  "address": "0x7CceB9eD153BF10249b558169ccB0Cc3d6f1DbeC",
  "abi": [
    {
      "inputs": [
        {
          "internalType": "contract IVotes",
          "name": "_token",
          "type": "address"
        },
        {
          "internalType": "contract TimelockController",
          "name": "_timelock",
          "type": "address"
        }
      ],
      "stateMutability": "nonpayable",
      "type": "constructor"
    },
    {
      "anonymous": false,
      "inputs": [
        {
          "indexed": false,
          "internalType": "uint256",
          "name": "proposalId",
          "type": "uint256"
        }
      ],
      "name": "ProposalCanceled",
      "type": "event"
    },
    {
      "anonymous": false,
      "inputs": [
        {
          "indexed": false,
          "internalType": "uint256",
          "name": "proposalId",
          "type": "uint256"
        },
        {
          "indexed": false,
          "internalType": "address",
          "name": "proposer",
          "type": "address"
        },
        {
          "indexed": false,
          "internalType": "address[]",
          "name": "targets",
          "type": "address[]"
        },
        {
          "indexed": false,
          "internalType": "uint256[]",
          "name": "values",
          "type": "uint256[]"
        },
        {
          "indexed": false,
          "internalType": "string[]",
          "name": "signatures",
          "type": "string[]"
        },
        {
          "indexed": false,
          "internalType": "bytes[]",
          "name": "calldatas",
          "type": "bytes[]"
        },
        {
          "indexed": false,
          "internalType": "uint256",
          "name": "startBlock",
          "type": "uint256"
        },
        {
          "indexed": false,
          "internalType": "uint256",
          "name": "endBlock",
          "type": "uint256"
        },
        {
          "indexed": false,
          "internalType": "string",
          "name": "description",
          "type": "string"
        }
      ],
      "name": "ProposalCreated",
      "type": "event"
    },
    {
      "anonymous": false,
      "inputs": [
        {
          "indexed": false,
          "internalType": "uint256",
          "name": "proposalId",
          "type": "uint256"
        }
      ],
      "name": "ProposalExecuted",
      "type": "event"
    },
    {
      "anonymous": false,
      "inputs": [
        {
          "indexed": false,
          "internalType": "uint256",
          "name": "proposalId",
          "type": "uint256"
        },
        {
          "indexed": false,
          "internalType": "uint256",
          "name": "eta",
          "type": "uint256"
        }
      ],
      "name": "ProposalQueued",
      "type": "event"
    },
    {
      "anonymous": false,
      "inputs": [
        {
          "indexed": false,
          "internalType": "uint256",
          "name": "oldProposalThreshold",
          "type": "uint256"
        },
        {
          "indexed": false,
          "internalType": "uint256",
          "name": "newProposalThreshold",
          "type": "uint256"
        }
      ],
      "name": "ProposalThresholdSet",
      "type": "event"
    },
    {
      "anonymous": false,
      "inputs": [
        {
          "indexed": false,
          "internalType": "uint256",
          "name": "oldQuorumNumerator",
          "type": "uint256"
        },
        {
          "indexed": false,
          "internalType": "uint256",
          "name": "newQuorumNumerator",
          "type": "uint256"
        }
      ],
      "name": "QuorumNumeratorUpdated",
      "type": "event"
    },
    {
      "anonymous": false,
      "inputs": [
        {
          "indexed": false,
          "internalType": "address",
          "name": "oldTimelock",
          "type": "address"
        },
        {
          "indexed": false,
          "internalType": "address",
          "name": "newTimelock",
          "type": "address"
        }
      ],
      "name": "TimelockChange",
      "type": "event"
    },
    {
      "anonymous": false,
      "inputs": [
        {
          "indexed": true,
          "internalType": "address",
          "name": "voter",
          "type": "address"
        },
        {
          "indexed": false,
          "internalType": "uint256",
          "name": "proposalId",
          "type": "uint256"
        },
        {
          "indexed": false,
          "internalType": "uint8",
          "name": "support",
          "type": "uint8"
        },
        {
          "indexed": false,
          "internalType": "uint256",
          "name": "weight",
          "type": "uint256"
        },
        {
          "indexed": false,
          "internalType": "string",
          "name": "reason",
          "type": "string"
        }
      ],
      "name": "VoteCast",
      "type": "event"
    },
    {
      "anonymous": false,
      "inputs": [
        {
          "indexed": false,
          "internalType": "uint256",
          "name": "oldVotingDelay",
          "type": "uint256"
        },
        {
          "indexed": false,
          "internalType": "uint256",
          "name": "newVotingDelay",
          "type": "uint256"
        }
      ],
      "name": "VotingDelaySet",
      "type": "event"
    },
    {
      "anonymous": false,
      "inputs": [
        {
          "indexed": false,
          "internalType": "uint256",
          "name": "oldVotingPeriod",
          "type": "uint256"
        },
        {
          "indexed": false,
          "internalType": "uint256",
          "name": "newVotingPeriod",
          "type": "uint256"
        }
      ],
      "name": "VotingPeriodSet",
      "type": "event"
    },
    {
      "inputs": [],
      "name": "BALLOT_TYPEHASH",
      "outputs": [
        {
          "internalType": "bytes32",
          "name": "",
          "type": "bytes32"
        }
      ],
      "stateMutability": "view",
      "type": "function"
    },
    {
      "inputs": [],
      "name": "COUNTING_MODE",
      "outputs": [
        {
          "internalType": "string",
          "name": "",
          "type": "string"
        }
      ],
      "stateMutability": "pure",
      "type": "function"
    },
    {
      "inputs": [
        {
          "internalType": "uint256",
          "name": "proposalId",
          "type": "uint256"
        },
        {
          "internalType": "uint8",
          "name": "support",
          "type": "uint8"
        }
      ],
      "name": "castVote",
      "outputs": [
        {
          "internalType": "uint256",
          "name": "",
          "type": "uint256"
        }
      ],
      "stateMutability": "nonpayable",
      "type": "function"
    },
    {
      "inputs": [
        {
          "internalType": "uint256",
          "name": "proposalId",
          "type": "uint256"
        },
        {
          "internalType": "uint8",
          "name": "support",
          "type": "uint8"
        },
        {
          "internalType": "uint8",
          "name": "v",
          "type": "uint8"
        },
        {
          "internalType": "bytes32",
          "name": "r",
          "type": "bytes32"
        },
        {
          "internalType": "bytes32",
          "name": "s",
          "type": "bytes32"
        }
      ],
      "name": "castVoteBySig",
      "outputs": [
        {
          "internalType": "uint256",
          "name": "",
          "type": "uint256"
        }
      ],
      "stateMutability": "nonpayable",
      "type": "function"
    },
    {
      "inputs": [
        {
          "internalType": "uint256",
          "name": "proposalId",
          "type": "uint256"
        },
        {
          "internalType": "uint8",
          "name": "support",
          "type": "uint8"
        },
        {
          "internalType": "string",
          "name": "reason",
          "type": "string"
        }
      ],
      "name": "castVoteWithReason",
      "outputs": [
        {
          "internalType": "uint256",
          "name": "",
          "type": "uint256"
        }
      ],
      "stateMutability": "nonpayable",
      "type": "function"
    },
    {
      "inputs": [
        {
          "internalType": "address[]",
          "name": "targets",
          "type": "address[]"
        },
        {
          "internalType": "uint256[]",
          "name": "values",
          "type": "uint256[]"
        },
        {
          "internalType": "bytes[]",
          "name": "calldatas",
          "type": "bytes[]"
        },
        {
          "internalType": "bytes32",
          "name": "descriptionHash",
          "type": "bytes32"
        }
      ],
      "name": "execute",
      "outputs": [
        {
          "internalType": "uint256",
          "name": "",
          "type": "uint256"
        }
      ],
      "stateMutability": "payable",
      "type": "function"
    },
    {
      "inputs": [
        {
          "internalType": "address",
          "name": "account",
          "type": "address"
        },
        {
          "internalType": "uint256",
          "name": "blockNumber",
          "type": "uint256"
        }
      ],
      "name": "getVotes",
      "outputs": [
        {
          "internalType": "uint256",
          "name": "",
          "type": "uint256"
        }
      ],
      "stateMutability": "view",
      "type": "function"
    },
    {
      "inputs": [
        {
          "internalType": "uint256",
          "name": "proposalId",
          "type": "uint256"
        },
        {
          "internalType": "address",
          "name": "account",
          "type": "address"
        }
      ],
      "name": "hasVoted",
      "outputs": [
        {
          "internalType": "bool",
          "name": "",
          "type": "bool"
        }
      ],
      "stateMutability": "view",
      "type": "function"
    },
    {
      "inputs": [
        {
          "internalType": "address[]",
          "name": "targets",
          "type": "address[]"
        },
        {
          "internalType": "uint256[]",
          "name": "values",
          "type": "uint256[]"
        },
        {
          "internalType": "bytes[]",
          "name": "calldatas",
          "type": "bytes[]"
        },
        {
          "internalType": "bytes32",
          "name": "descriptionHash",
          "type": "bytes32"
        }
      ],
      "name": "hashProposal",
      "outputs": [
        {
          "internalType": "uint256",
          "name": "",
          "type": "uint256"
        }
      ],
      "stateMutability": "pure",
      "type": "function"
    },
    {
      "inputs": [],
      "name": "name",
      "outputs": [
        {
          "internalType": "string",
          "name": "",
          "type": "string"
        }
      ],
      "stateMutability": "view",
      "type": "function"
    },
    {
      "inputs": [
        {
          "internalType": "uint256",
          "name": "proposalId",
          "type": "uint256"
        }
      ],
      "name": "proposalDeadline",
      "outputs": [
        {
          "internalType": "uint256",
          "name": "",
          "type": "uint256"
        }
      ],
      "stateMutability": "view",
      "type": "function"
    },
    {
      "inputs": [
        {
          "internalType": "uint256",
          "name": "proposalId",
          "type": "uint256"
        }
      ],
      "name": "proposalEta",
      "outputs": [
        {
          "internalType": "uint256",
          "name": "",
          "type": "uint256"
        }
      ],
      "stateMutability": "view",
      "type": "function"
    },
    {
      "inputs": [
        {
          "internalType": "uint256",
          "name": "proposalId",
          "type": "uint256"
        }
      ],
      "name": "proposalSnapshot",
      "outputs": [
        {
          "internalType": "uint256",
          "name": "",
          "type": "uint256"
        }
      ],
      "stateMutability": "view",
      "type": "function"
    },
    {
      "inputs": [],
      "name": "proposalThreshold",
      "outputs": [
        {
          "internalType": "uint256",
          "name": "",
          "type": "uint256"
        }
      ],
      "stateMutability": "view",
      "type": "function"
    },
    {
      "inputs": [
        {
          "internalType": "uint256",
          "name": "proposalId",
          "type": "uint256"
        }
      ],
      "name": "proposalVotes",
      "outputs": [
        {
          "internalType": "uint256",
          "name": "againstVotes",
          "type": "uint256"
        },
        {
          "internalType": "uint256",
          "name": "forVotes",
          "type": "uint256"
        },
        {
          "internalType": "uint256",
          "name": "abstainVotes",
          "type": "uint256"
        }
      ],
      "stateMutability": "view",
      "type": "function"
    },
    {
      "inputs": [
        {
          "internalType": "address[]",
          "name": "targets",
          "type": "address[]"
        },
        {
          "internalType": "uint256[]",
          "name": "values",
          "type": "uint256[]"
        },
        {
          "internalType": "bytes[]",
          "name": "calldatas",
          "type": "bytes[]"
        },
        {
          "internalType": "string",
          "name": "description",
          "type": "string"
        }
      ],
      "name": "propose",
      "outputs": [
        {
          "internalType": "uint256",
          "name": "",
          "type": "uint256"
        }
      ],
      "stateMutability": "nonpayable",
      "type": "function"
    },
    {
      "inputs": [
        {
          "internalType": "address[]",
          "name": "targets",
          "type": "address[]"
        },
        {
          "internalType": "uint256[]",
          "name": "values",
          "type": "uint256[]"
        },
        {
          "internalType": "bytes[]",
          "name": "calldatas",
          "type": "bytes[]"
        },
        {
          "internalType": "bytes32",
          "name": "descriptionHash",
          "type": "bytes32"
        }
      ],
      "name": "queue",
      "outputs": [
        {
          "internalType": "uint256",
          "name": "",
          "type": "uint256"
        }
      ],
      "stateMutability": "nonpayable",
      "type": "function"
    },
    {
      "inputs": [
        {
          "internalType": "uint256",
          "name": "blockNumber",
          "type": "uint256"
        }
      ],
      "name": "quorum",
      "outputs": [
        {
          "internalType": "uint256",
          "name": "",
          "type": "uint256"
        }
      ],
      "stateMutability": "view",
      "type": "function"
    },
    {
      "inputs": [],
      "name": "quorumDenominator",
      "outputs": [
        {
          "internalType": "uint256",
          "name": "",
          "type": "uint256"
        }
      ],
      "stateMutability": "view",
      "type": "function"
    },
    {
      "inputs": [],
      "name": "quorumNumerator",
      "outputs": [
        {
          "internalType": "uint256",
          "name": "",
          "type": "uint256"
        }
      ],
      "stateMutability": "view",
      "type": "function"
    },
    {
      "inputs": [
        {
          "internalType": "address",
          "name": "target",
          "type": "address"
        },
        {
          "internalType": "uint256",
          "name": "value",
          "type": "uint256"
        },
        {
          "internalType": "bytes",
          "name": "data",
          "type": "bytes"
        }
      ],
      "name": "relay",
      "outputs": [],
      "stateMutability": "nonpayable",
      "type": "function"
    },
    {
      "inputs": [
        {
          "internalType": "uint256",
          "name": "newProposalThreshold",
          "type": "uint256"
        }
      ],
      "name": "setProposalThreshold",
      "outputs": [],
      "stateMutability": "nonpayable",
      "type": "function"
    },
    {
      "inputs": [
        {
          "internalType": "uint256",
          "name": "newVotingDelay",
          "type": "uint256"
        }
      ],
      "name": "setVotingDelay",
      "outputs": [],
      "stateMutability": "nonpayable",
      "type": "function"
    },
    {
      "inputs": [
        {
          "internalType": "uint256",
          "name": "newVotingPeriod",
          "type": "uint256"
        }
      ],
      "name": "setVotingPeriod",
      "outputs": [],
      "stateMutability": "nonpayable",
      "type": "function"
    },
    {
      "inputs": [
        {
          "internalType": "uint256",
          "name": "proposalId",
          "type": "uint256"
        }
      ],
      "name": "state",
      "outputs": [
        {
          "internalType": "enum IGovernor.ProposalState",
          "name": "",
          "type": "uint8"
        }
      ],
      "stateMutability": "view",
      "type": "function"
    },
    {
      "inputs": [
        {
          "internalType": "bytes4",
          "name": "interfaceId",
          "type": "bytes4"
        }
      ],
      "name": "supportsInterface",
      "outputs": [
        {
          "internalType": "bool",
          "name": "",
          "type": "bool"
        }
      ],
      "stateMutability": "view",
      "type": "function"
    },
    {
      "inputs": [],
      "name": "timelock",
      "outputs": [
        {
          "internalType": "address",
          "name": "",
          "type": "address"
        }
      ],
      "stateMutability": "view",
      "type": "function"
    },
    {
      "inputs": [],
      "name": "token",
      "outputs": [
        {
          "internalType": "contract IVotes",
          "name": "",
          "type": "address"
        }
      ],
      "stateMutability": "view",
      "type": "function"
    },
    {
      "inputs": [
        {
          "internalType": "uint256",
          "name": "newQuorumNumerator",
          "type": "uint256"
        }
      ],
      "name": "updateQuorumNumerator",
      "outputs": [],
      "stateMutability": "nonpayable",
      "type": "function"
    },
    {
      "inputs": [
        {
          "internalType": "contract TimelockController",
          "name": "newTimelock",
          "type": "address"
        }
      ],
      "name": "updateTimelock",
      "outputs": [],
      "stateMutability": "nonpayable",
      "type": "function"
    },
    {
      "inputs": [],
      "name": "version",
      "outputs": [
        {
          "internalType": "string",
          "name": "",
          "type": "string"
        }
      ],
      "stateMutability": "view",
      "type": "function"
    },
    {
      "inputs": [],
      "name": "votingDelay",
      "outputs": [
        {
          "internalType": "uint256",
          "name": "",
          "type": "uint256"
        }
      ],
      "stateMutability": "view",
      "type": "function"
    },
    {
      "inputs": [],
      "name": "votingPeriod",
      "outputs": [
        {
          "internalType": "uint256",
          "name": "",
          "type": "uint256"
        }
      ],
      "stateMutability": "view",
      "type": "function"
    },
    {
      "stateMutability": "payable",
      "type": "receive"
    }
  ],
  "transactionHash": "0x35977227a04c18f9138ce475e5c9d447326922351ebbf5e02602b86e586bf501",
  "args": [
    "0x73172A592733dA83C58884f968805f58c48461E8",
    "0xA88D911172648864a014209ce5161A0F0ceeBF25"
  ],
  "numDeployments": 1,
  "solcInputHash": "c673e363a950d162cc4e095a7d22b92a",
  "bytecode": "0x6101606040523480156200001257600080fd5b50604051620033163803806200331683398101604081905262000035916200047d565b80600483600161b2fa6000604051806060016040528060218152602001620032f560219139806200007a6040805180820190915260018152603160f81b602082015290565b815160208084019190912082518383012060e08290526101008190524660a0818152604080517f8b73c3c69bb8fe3d512ecc4cf759cc79239f7b179b0ffacaa9a75d522b39400f81880181905281830187905260608201869052608082019490945230818401528151808203909301835260c00190528051940193909320919290916080523060601b60c0526101205250508251620001239250600091506020840190620003d7565b50620001319050836200017b565b6200013c82620001bc565b620001478162000263565b50505060601b6001600160601b031916610140526200016681620002a4565b5062000172816200036e565b50505062000512565b60025460408051918252602082018390527fc565b045403dc03c2eea82b81a0465edad9e2e7fc4d97e11421c209da93d7a93910160405180910390a1600255565b60008111620002225760405162461bcd60e51b815260206004820152602760248201527f476f7665726e6f7253657474696e67733a20766f74696e6720706572696f6420604482015266746f6f206c6f7760c81b60648201526084015b60405180910390fd5b60035460408051918252602082018390527f7e3f7f0708a84de9203036abaa450dccc85ad5ff52f78c170f3edb55cf5e8828910160405180910390a1600355565b60045460408051918252602082018390527fccb45da8d5717e6c4544694297c4ba5cf151d455c9bb0ed4fc7a38411bc05461910160405180910390a1600455565b6064811115620003295760405162461bcd60e51b815260206004820152604360248201527f476f7665726e6f72566f74657351756f72756d4672616374696f6e3a2071756f60448201527f72756d4e756d657261746f72206f7665722071756f72756d44656e6f6d696e616064820152623a37b960e91b608482015260a40162000219565b600680549082905560408051828152602081018490527f0553476bf02ef2726e8ce5ced78d63e26e602e4a2257b1f559418e24b4633997910160405180910390a15050565b600754604080516001600160a01b03928316815291831660208301527f08f74ea46ef7894f65eabfb5e6e695de773a000b47c529ab559178069b226401910160405180910390a1600780546001600160a01b0319166001600160a01b0392909216919091179055565b828054620003e590620004bc565b90600052602060002090601f01602090048101928262000409576000855562000454565b82601f106200042457805160ff191683800117855562000454565b8280016001018555821562000454579182015b828111156200045457825182559160200191906001019062000437565b506200046292915062000466565b5090565b5b8082111562000462576000815560010162000467565b600080604083850312156200049157600080fd5b82516200049e81620004f9565b6020840151909250620004b181620004f9565b809150509250929050565b600181811c90821680620004d157607f821691505b60208210811415620004f357634e487b7160e01b600052602260045260246000fd5b50919050565b6001600160a01b03811681146200050f57600080fd5b50565b60805160a05160c05160601c60e05161010051610120516101405160601c612d7462000581600039600081816106ce01528181611770015261184a01526000611a1301526000611a6201526000611a3d01526000611996015260006119c0015260006119ea0152612d746000f3fe6080604052600436106101f25760003560e01c80637d5e81e21161010d578063c59057e4116100a0578063ea0217cf1161006f578063ea0217cf1461063c578063eb9019d41461065c578063ece40cc11461067c578063f8ce560a1461069c578063fc0c546a146106bc57600080fd5b8063c59057e414610570578063d33219b414610590578063dd4e2ba5146105c2578063deaaa7cc1461060857600080fd5b8063ab58fb8e116100dc578063ab58fb8e146104fb578063b58131b01461051b578063c01f9e3714610530578063c28bc2fa1461055057600080fd5b80637d5e81e21461049257806397c3d334146104b2578063a7713a70146104c6578063a890c910146104db57600080fd5b80633bccf4fd1161018557806354fd4d501161015457806354fd4d5014610408578063567813881461043257806370b0f660146104525780637b3c71d31461047257600080fd5b80633bccf4fd1461031c5780633e4f49e61461033c5780634385963214610369578063544ffc9c146103b357600080fd5b8063160cbed7116101c1578063160cbed7146102b45780632656227d146102d45780632d63f693146102e75780633932abb11461030757600080fd5b806301ffc9a71461021a57806302a251a31461024f57806306f3f9e61461027257806306fdde031461029257600080fd5b3661021557306102006106f0565b6001600160a01b03161461021357600080fd5b005b600080fd5b34801561022657600080fd5b5061023a61023536600461261d565b610709565b60405190151581526020015b60405180910390f35b34801561025b57600080fd5b5061026461071a565b604051908152602001610246565b34801561027e57600080fd5b5061021361028d366004612664565b610725565b34801561029e57600080fd5b506102a7610772565b6040516102469190612982565b3480156102c057600080fd5b506102646102cf366004612493565b610804565b6102646102e2366004612493565b610a22565b3480156102f357600080fd5b50610264610302366004612664565b610af5565b34801561031357600080fd5b50610264610b2c565b34801561032857600080fd5b5061026461033736600461271a565b610b37565b34801561034857600080fd5b5061035c610357366004612664565b610bcb565b604051610246919061295a565b34801561037557600080fd5b5061023a61038436600461267d565b60008281526005602090815260408083206001600160a01b038516845260030190915290205460ff1692915050565b3480156103bf57600080fd5b506103ed6103ce366004612664565b6000908152600560205260409020805460018201546002909201549092565b60408051938452602084019290925290820152606001610246565b34801561041457600080fd5b506040805180820190915260018152603160f81b60208201526102a7565b34801561043e57600080fd5b5061026461044d3660046126ad565b610bd6565b34801561045e57600080fd5b5061021361046d366004612664565b610bff565b34801561047e57600080fd5b5061026461048d3660046126d9565b610c40565b34801561049e57600080fd5b506102646104ad366004612522565b610c92565b3480156104be57600080fd5b506064610264565b3480156104d257600080fd5b50600654610264565b3480156104e757600080fd5b506102136104f6366004612647565b610ca9565b34801561050757600080fd5b50610264610516366004612664565b610cea565b34801561052757600080fd5b50610264610d94565b34801561053c57600080fd5b5061026461054b366004612664565b610d9f565b34801561055c57600080fd5b5061021361056b366004612438565b610dce565b34801561057c57600080fd5b5061026461058b366004612493565b610e4f565b34801561059c57600080fd5b506007546001600160a01b03165b6040516001600160a01b039091168152602001610246565b3480156105ce57600080fd5b506040805180820190915260208082527f737570706f72743d627261766f2671756f72756d3d666f722c6162737461696e908201526102a7565b34801561061457600080fd5b506102647f150214d74d59b7d1e90c73fc22ef3d991dd0a76b046543d4d80ab92d2a50328f81565b34801561064857600080fd5b50610213610657366004612664565b610e89565b34801561066857600080fd5b5061026461067736600461240c565b610eca565b34801561068857600080fd5b50610213610697366004612664565b610ed6565b3480156106a857600080fd5b506102646106b7366004612664565b610f17565b3480156106c857600080fd5b506105aa7f000000000000000000000000000000000000000000000000000000000000000081565b60006107046007546001600160a01b031690565b905090565b600061071482610f22565b92915050565b600061070460035490565b61072d6106f0565b6001600160a01b0316336001600160a01b0316146107665760405162461bcd60e51b815260040161075d90612995565b60405180910390fd5b61076f81610f47565b50565b60606000805461078190612c83565b80601f01602080910402602001604051908101604052809291908181526020018280546107ad90612c83565b80156107fa5780601f106107cf576101008083540402835291602001916107fa565b820191906000526020600020905b8154815290600101906020018083116107dd57829003601f168201915b5050505050905090565b60008061081386868686610e4f565b9050600461082082610bcb565b600781111561083157610831612cd4565b1461084e5760405162461bcd60e51b815260040161075d90612a0d565b6007546040805163793d064960e11b815290516000926001600160a01b03169163f27a0c92916004808301926020929190829003018186803b15801561089357600080fd5b505afa1580156108a7573d6000803e3d6000fd5b505050506040513d601f19601f820116820180604052508101906108cb9190612604565b60075460405163b1c5f42760e01b81529192506001600160a01b03169063b1c5f42790610905908a908a908a906000908b906004016128b4565b60206040518083038186803b15801561091d57600080fd5b505afa158015610931573d6000803e3d6000fd5b505050506040513d601f19601f820116820180604052508101906109559190612604565b6000838152600860205260408082209290925560075491516308f2a0bb60e41b81526001600160a01b0390921691638f2a0bb0916109a0918b918b918b91908b908990600401612902565b600060405180830381600087803b1580156109ba57600080fd5b505af11580156109ce573d6000803e3d6000fd5b505050507f9a2e42fd6722813d69113e7d0079d3d940171428df7373df9c7f7617cfda2892828242610a009190612bb8565b6040805192835260208301919091520160405180910390a15095945050505050565b600080610a3186868686610e4f565b90506000610a3e82610bcb565b90506004816007811115610a5457610a54612cd4565b1480610a7157506005816007811115610a6f57610a6f612cd4565b145b610a8d5760405162461bcd60e51b815260040161075d90612a0d565b600082815260016020818152604092839020600201805460ff191690921790915590518381527f712ae1383f79ac853f8d882153778e0260ef8f03b504e2866e0593e04d2b291f910160405180910390a1610aeb828888888861100f565b5095945050505050565b60008181526001602090815260408083208151928301909152546001600160401b0316908190525b6001600160401b031692915050565b600061070460025490565b604080517f150214d74d59b7d1e90c73fc22ef3d991dd0a76b046543d4d80ab92d2a50328f602082015290810186905260ff851660608201526000908190610ba390610b9b906080016040516020818303038152906040528051906020012061101c565b86868661106a565b9050610bc087828860405180602001604052806000815250611088565b979650505050505050565b600061071482611193565b600080339050610bf784828560405180602001604052806000815250611088565b949350505050565b610c076106f0565b6001600160a01b0316336001600160a01b031614610c375760405162461bcd60e51b815260040161075d90612995565b61076f816112fb565b600080339050610c8886828787878080601f01602080910402602001604051908101604052809392919081815260200183838082843760009201919091525061108892505050565b9695505050505050565b6000610ca08585858561133c565b95945050505050565b610cb16106f0565b6001600160a01b0316336001600160a01b031614610ce15760405162461bcd60e51b815260040161075d90612995565b61076f81611617565b60075460008281526008602052604080822054905163d45c443560e01b81526004810191909152909182916001600160a01b039091169063d45c44359060240160206040518083038186803b158015610d4257600080fd5b505afa158015610d56573d6000803e3d6000fd5b505050506040513d601f19601f82011682018060405250810190610d7a9190612604565b905080600114610d8a5780610d8d565b60005b9392505050565b600061070460045490565b60008181526001602081815260408084208151928301909152909101546001600160401b031690819052610b1d565b610dd66106f0565b6001600160a01b0316336001600160a01b031614610e065760405162461bcd60e51b815260040161075d90612995565b610e488483838080601f016020809104026020016040519081016040528093929190818152602001838380828437600092019190915250889250611680915050565b5050505050565b600084848484604051602001610e689493929190612869565b60408051601f19818403018152919052805160209091012095945050505050565b610e916106f0565b6001600160a01b0316336001600160a01b031614610ec15760405162461bcd60e51b815260040161075d90612995565b61076f816116a6565b6000610d8d8383611747565b610ede6106f0565b6001600160a01b0316336001600160a01b031614610f0e5760405162461bcd60e51b815260040161075d90612995565b61076f816117ec565b60006107148261182d565b60006001600160e01b03198216636e665ced60e01b14806107145750610714826118e0565b6064811115610fca5760405162461bcd60e51b815260206004820152604360248201527f476f7665726e6f72566f74657351756f72756d4672616374696f6e3a2071756f60448201527f72756d4e756d657261746f72206f7665722071756f72756d44656e6f6d696e616064820152623a37b960e91b608482015260a40161075d565b600680549082905560408051828152602081018490527f0553476bf02ef2726e8ce5ced78d63e26e602e4a2257b1f559418e24b4633997910160405180910390a15050565b610e488585858585611915565b6000610714611029611989565b8360405161190160f01b6020820152602281018390526042810182905260009060620160405160208183030381529060405280519060200120905092915050565b600080600061107b87878787611ab0565b91509150610aeb81611b9d565b60008481526001602081905260408220906110a287610bcb565b60078111156110b3576110b3612cd4565b1461110c5760405162461bcd60e51b815260206004820152602360248201527f476f7665726e6f723a20766f7465206e6f742063757272656e746c792061637460448201526269766560e81b606482015260840161075d565b604080516020810190915281546001600160401b031690819052600090611134908790610eca565b905061114287878784611d58565b856001600160a01b03167fb8e138887d0aa13bab447e82de9d5c1777041ecd21ca36ba824ff1e6c07ddda4888784886040516111819493929190612b3d565b60405180910390a29695505050505050565b60008061119f83611ed7565b905060048160078111156111b5576111b5612cd4565b146111c05792915050565b600083815260086020526040902054806111db575092915050565b600754604051632ab0f52960e01b8152600481018390526001600160a01b0390911690632ab0f5299060240160206040518083038186803b15801561121f57600080fd5b505afa158015611233573d6000803e3d6000fd5b505050506040513d601f19601f8201168201806040525081019061125791906125e2565b15611266575060079392505050565b600754604051632c258a9f60e11b8152600481018390526001600160a01b039091169063584b153e9060240160206040518083038186803b1580156112aa57600080fd5b505afa1580156112be573d6000803e3d6000fd5b505050506040513d601f19601f820116820180604052508101906112e291906125e2565b156112f1575060059392505050565b5060029392505050565b60025460408051918252602082018390527fc565b045403dc03c2eea82b81a0465edad9e2e7fc4d97e11421c209da93d7a93910160405180910390a1600255565b6000611346610d94565b61135533610677600143612c3c565b10156113d55760405162461bcd60e51b815260206004820152604360248201527f476f7665726e6f72436f6d7061746962696c697479427261766f3a2070726f7060448201527f6f73657220766f7465732062656c6f772070726f706f73616c207468726573686064820152621bdb1960ea1b608482015260a40161075d565b60006113ea8686868680519060200120610e4f565b9050845186511461140d5760405162461bcd60e51b815260040161075d906129cc565b835186511461142e5760405162461bcd60e51b815260040161075d906129cc565b600086511161147f5760405162461bcd60e51b815260206004820152601860248201527f476f7665726e6f723a20656d7074792070726f706f73616c0000000000000000604482015260640161075d565b600081815260016020908152604091829020825191820190925281546001600160401b031690819052156114ff5760405162461bcd60e51b815260206004820152602160248201527f476f7665726e6f723a2070726f706f73616c20616c72656164792065786973746044820152607360f81b606482015260840161075d565b600061151161150c610b2c565b611fe3565b61151a43611fe3565b6115249190612bd0565b9050600061153361150c61071a565b61153d9083612bd0565b835467ffffffffffffffff19166001600160401b038416178455905060018301805467ffffffffffffffff19166001600160401b0383161790557f7d84a6263ae0d98d3329bd7b46bb4e8d6f98cd35a7adb45c274c8b7fd5ebd5e084338b8b8d516001600160401b038111156115b5576115b5612cea565b6040519080825280602002602001820160405280156115e857816020015b60608152602001906001900390816115d35790505b508c88888e60405161160299989796959493929190612a4e565b60405180910390a15091979650505050505050565b600754604080516001600160a01b03928316815291831660208301527f08f74ea46ef7894f65eabfb5e6e695de773a000b47c529ab559178069b226401910160405180910390a1600780546001600160a01b0319166001600160a01b0392909216919091179055565b6060610bf7848484604051806060016040528060298152602001612d166029913961204f565b600081116117065760405162461bcd60e51b815260206004820152602760248201527f476f7665726e6f7253657474696e67733a20766f74696e6720706572696f6420604482015266746f6f206c6f7760c81b606482015260840161075d565b60035460408051918252602082018390527f7e3f7f0708a84de9203036abaa450dccc85ad5ff52f78c170f3edb55cf5e8828910160405180910390a1600355565b604051630748d63560e31b81526001600160a01b038381166004830152602482018390526000917f000000000000000000000000000000000000000000000000000000000000000090911690633a46b1a89060440160206040518083038186803b1580156117b457600080fd5b505afa1580156117c8573d6000803e3d6000fd5b505050506040513d601f19601f82011682018060405250810190610d8d9190612604565b60045460408051918252602082018390527fccb45da8d5717e6c4544694297c4ba5cf151d455c9bb0ed4fc7a38411bc05461910160405180910390a1600455565b60006064600654604051632394e7a360e21b8152600481018590527f00000000000000000000000000000000000000000000000000000000000000006001600160a01b031690638e539e8c9060240160206040518083038186803b15801561189457600080fd5b505afa1580156118a8573d6000803e3d6000fd5b505050506040513d601f19601f820116820180604052508101906118cc9190612604565b6118d69190612c1d565b6107149190612bfb565b60006001600160e01b0319821663bf26d89760e01b148061071457506301ffc9a760e01b6001600160e01b0319831614610714565b60075460405163e38335e560e01b81526001600160a01b039091169063e38335e59034906119509088908890889060009089906004016128b4565b6000604051808303818588803b15801561196957600080fd5b505af115801561197d573d6000803e3d6000fd5b50505050505050505050565b6000306001600160a01b037f0000000000000000000000000000000000000000000000000000000000000000161480156119e257507f000000000000000000000000000000000000000000000000000000000000000046145b15611a0c57507f000000000000000000000000000000000000000000000000000000000000000090565b50604080517f00000000000000000000000000000000000000000000000000000000000000006020808301919091527f0000000000000000000000000000000000000000000000000000000000000000828401527f000000000000000000000000000000000000000000000000000000000000000060608301524660808301523060a0808401919091528351808403909101815260c0909201909252805191012090565b6000807f7fffffffffffffffffffffffffffffff5d576e7357a4501ddfe92f46681b20a0831115611ae75750600090506003611b94565b8460ff16601b14158015611aff57508460ff16601c14155b15611b105750600090506004611b94565b6040805160008082526020820180845289905260ff881692820192909252606081018690526080810185905260019060a0016020604051602081039080840390855afa158015611b64573d6000803e3d6000fd5b5050604051601f1901519150506001600160a01b038116611b8d57600060019250925050611b94565b9150600090505b94509492505050565b6000816004811115611bb157611bb1612cd4565b1415611bba5750565b6001816004811115611bce57611bce612cd4565b1415611c1c5760405162461bcd60e51b815260206004820152601860248201527f45434453413a20696e76616c6964207369676e61747572650000000000000000604482015260640161075d565b6002816004811115611c3057611c30612cd4565b1415611c7e5760405162461bcd60e51b815260206004820152601f60248201527f45434453413a20696e76616c6964207369676e6174757265206c656e67746800604482015260640161075d565b6003816004811115611c9257611c92612cd4565b1415611ceb5760405162461bcd60e51b815260206004820152602260248201527f45434453413a20696e76616c6964207369676e6174757265202773272076616c604482015261756560f01b606482015260840161075d565b6004816004811115611cff57611cff612cd4565b141561076f5760405162461bcd60e51b815260206004820152602260248201527f45434453413a20696e76616c6964207369676e6174757265202776272076616c604482015261756560f01b606482015260840161075d565b60008481526005602090815260408083206001600160a01b0387168452600381019092529091205460ff1615611de05760405162461bcd60e51b815260206004820152602760248201527f476f7665726e6f72566f74696e6753696d706c653a20766f746520616c726561604482015266191e4818d85cdd60ca1b606482015260840161075d565b6001600160a01b03841660009081526003820160205260408120805460ff1916600117905560ff168360ff161415611e315781816000016000828254611e269190612bb8565b90915550610e489050565b60ff831660011415611e515781816001016000828254611e269190612bb8565b60ff831660021415611e715781816002016000828254611e269190612bb8565b60405162461bcd60e51b815260206004820152603560248201527f476f7665726e6f72566f74696e6753696d706c653a20696e76616c69642076616044820152746c756520666f7220656e756d20566f74655479706560581b606482015260840161075d565b6000818152600160205260408120600281015460ff1615611efb5750600792915050565b6002810154610100900460ff1615611f165750600292915050565b6000611f2184610af5565b905080611f705760405162461bcd60e51b815260206004820152601d60248201527f476f7665726e6f723a20756e6b6e6f776e2070726f706f73616c206964000000604482015260640161075d565b438110611f81575060009392505050565b6000611f8c85610d9f565b9050438110611fa057506001949350505050565b611fa985612175565b8015611fc8575060008581526005602052604090208054600190910154115b15611fd857506004949350505050565b506003949350505050565b60006001600160401b0382111561204b5760405162461bcd60e51b815260206004820152602660248201527f53616665436173743a2076616c756520646f65736e27742066697420696e203660448201526534206269747360d01b606482015260840161075d565b5090565b6060824710156120b05760405162461bcd60e51b815260206004820152602660248201527f416464726573733a20696e73756666696369656e742062616c616e636520666f6044820152651c8818d85b1b60d21b606482015260840161075d565b6001600160a01b0385163b6121075760405162461bcd60e51b815260206004820152601d60248201527f416464726573733a2063616c6c20746f206e6f6e2d636f6e7472616374000000604482015260640161075d565b600080866001600160a01b03168587604051612123919061284d565b60006040518083038185875af1925050503d8060008114612160576040519150601f19603f3d011682016040523d82523d6000602084013e612165565b606091505b5091509150610bc08282866121ac565b6000818152600560205260408120600281015460018201546121979190612bb8565b6121a36106b785610af5565b11159392505050565b606083156121bb575081610d8d565b8251156121cb5782518084602001fd5b8160405162461bcd60e51b815260040161075d9190612982565b60006001600160401b038311156121fe576121fe612cea565b612211601f8401601f1916602001612b65565b905082815283838301111561222557600080fd5b828260208301376000602084830101529392505050565b600082601f83011261224d57600080fd5b8135602061226261225d83612b95565b612b65565b80838252828201915082860187848660051b890101111561228257600080fd5b60005b858110156122aa57813561229881612d00565b84529284019290840190600101612285565b5090979650505050505050565b600082601f8301126122c857600080fd5b813560206122d861225d83612b95565b80838252828201915082860187848660051b89010111156122f857600080fd5b60005b858110156122aa5781356001600160401b0381111561231957600080fd5b8801603f81018a1361232a57600080fd5b61233b8a87830135604084016121e5565b85525092840192908401906001016122fb565b600082601f83011261235f57600080fd5b8135602061236f61225d83612b95565b80838252828201915082860187848660051b890101111561238f57600080fd5b60005b858110156122aa57813584529284019290840190600101612392565b60008083601f8401126123c057600080fd5b5081356001600160401b038111156123d757600080fd5b6020830191508360208285010111156123ef57600080fd5b9250929050565b803560ff8116811461240757600080fd5b919050565b6000806040838503121561241f57600080fd5b823561242a81612d00565b946020939093013593505050565b6000806000806060858703121561244e57600080fd5b843561245981612d00565b93506020850135925060408501356001600160401b0381111561247b57600080fd5b612487878288016123ae565b95989497509550505050565b600080600080608085870312156124a957600080fd5b84356001600160401b03808211156124c057600080fd5b6124cc8883890161223c565b955060208701359150808211156124e257600080fd5b6124ee8883890161234e565b9450604087013591508082111561250457600080fd5b50612511878288016122b7565b949793965093946060013593505050565b6000806000806080858703121561253857600080fd5b84356001600160401b038082111561254f57600080fd5b61255b8883890161223c565b9550602087013591508082111561257157600080fd5b61257d8883890161234e565b9450604087013591508082111561259357600080fd5b61259f888389016122b7565b935060608701359150808211156125b557600080fd5b508501601f810187136125c757600080fd5b6125d6878235602084016121e5565b91505092959194509250565b6000602082840312156125f457600080fd5b81518015158114610d8d57600080fd5b60006020828403121561261657600080fd5b5051919050565b60006020828403121561262f57600080fd5b81356001600160e01b031981168114610d8d57600080fd5b60006020828403121561265957600080fd5b8135610d8d81612d00565b60006020828403121561267657600080fd5b5035919050565b6000806040838503121561269057600080fd5b8235915060208301356126a281612d00565b809150509250929050565b600080604083850312156126c057600080fd5b823591506126d0602084016123f6565b90509250929050565b600080600080606085870312156126ef57600080fd5b843593506126ff602086016123f6565b925060408501356001600160401b0381111561247b57600080fd5b600080600080600060a0868803121561273257600080fd5b85359450612742602087016123f6565b9350612750604087016123f6565b94979396509394606081013594506080013592915050565b600081518084526020808501945080840160005b838110156127a15781516001600160a01b03168752958201959082019060010161277c565b509495945050505050565b6000815180845260208085019450848260051b860182860160005b858110156122aa5783830389526127df838351612821565b988501989250908401906001016127c7565b600081518084526020808501945080840160005b838110156127a157815187529582019590820190600101612805565b60008151808452612839816020860160208601612c53565b601f01601f19169290920160200192915050565b6000825161285f818460208701612c53565b9190910192915050565b60808152600061287c6080830187612768565b828103602084015261288e81876127f1565b905082810360408401526128a281866127ac565b91505082606083015295945050505050565b60a0815260006128c760a0830188612768565b82810360208401526128d981886127f1565b905082810360408401526128ed81876127ac565b60608401959095525050608001529392505050565b60c08152600061291560c0830189612768565b828103602084015261292781896127f1565b9050828103604084015261293b81886127ac565b60608401969096525050608081019290925260a0909101529392505050565b602081016008831061297c57634e487b7160e01b600052602160045260246000fd5b91905290565b602081526000610d8d6020830184612821565b60208082526018908201527f476f7665726e6f723a206f6e6c79476f7665726e616e63650000000000000000604082015260600190565b60208082526021908201527f476f7665726e6f723a20696e76616c69642070726f706f73616c206c656e67746040820152600d60fb1b606082015260800190565b60208082526021908201527f476f7665726e6f723a2070726f706f73616c206e6f74207375636365737366756040820152601b60fa1b606082015260800190565b60006101208b8352602060018060a01b038c1681850152816040850152612a778285018c612768565b91508382036060850152612a8b828b6127f1565b915083820360808501528189518084528284019150828160051b850101838c0160005b83811015612adc57601f19878403018552612aca838351612821565b94860194925090850190600101612aae565b505086810360a0880152612af0818c6127ac565b945050505050612b0b60c08401876001600160401b03169052565b6001600160401b03851660e0840152828103610100840152612b2d8185612821565b9c9b505050505050505050505050565b84815260ff84166020820152826040820152608060608201526000610c886080830184612821565b604051601f8201601f191681016001600160401b0381118282101715612b8d57612b8d612cea565b604052919050565b60006001600160401b03821115612bae57612bae612cea565b5060051b60200190565b60008219821115612bcb57612bcb612cbe565b500190565b60006001600160401b03808316818516808303821115612bf257612bf2612cbe565b01949350505050565b600082612c1857634e487b7160e01b600052601260045260246000fd5b500490565b6000816000190483118215151615612c3757612c37612cbe565b500290565b600082821015612c4e57612c4e612cbe565b500390565b60005b83811015612c6e578181015183820152602001612c56565b83811115612c7d576000848401525b50505050565b600181811c90821680612c9757607f821691505b60208210811415612cb857634e487b7160e01b600052602260045260246000fd5b50919050565b634e487b7160e01b600052601160045260246000fd5b634e487b7160e01b600052602160045260246000fd5b634e487b7160e01b600052604160045260246000fd5b6001600160a01b038116811461076f57600080fdfe416464726573733a206c6f772d6c6576656c2063616c6c20776974682076616c7565206661696c6564a2646970667358221220285d323d14efe565bf7154eab1d217de7b3ae416a63e2cac47c1839c6b48225964736f6c63430008070033426974636f696e204c6f74746572792050726f746f636f6c20476f7665726e6f72",
  "devdoc": {
    "kind": "dev",
    "methods": {
      "COUNTING_MODE()": {
        "details": "See {IGovernor-COUNTING_MODE}."
      },
      "castVote(uint256,uint8)": {
        "details": "See {IGovernor-castVote}."
      },
      "castVoteBySig(uint256,uint8,uint8,bytes32,bytes32)": {
        "details": "See {IGovernor-castVoteBySig}."
      },
      "castVoteWithReason(uint256,uint8,string)": {
        "details": "See {IGovernor-castVoteWithReason}."
      },
      "execute(address[],uint256[],bytes[],bytes32)": {
        "details": "See {IGovernor-execute}."
      },
      "hasVoted(uint256,address)": {
        "details": "See {IGovernor-hasVoted}."
      },
      "hashProposal(address[],uint256[],bytes[],bytes32)": {
        "details": "See {IGovernor-hashProposal}. The proposal id is produced by hashing the RLC encoded `targets` array, the `values` array, the `calldatas` array and the descriptionHash (bytes32 which itself is the keccak256 hash of the description string). This proposal id can be produced from the proposal data which is part of the {ProposalCreated} event. It can even be computed in advance, before the proposal is submitted. Note that the chainId and the governor address are not part of the proposal id computation. Consequently, the same proposal (with same operation and same description) will have the same id if submitted on multiple governors accross multiple networks. This also means that in order to execute the same operation twice (on the same governor) the proposer will have to change the description in order to avoid proposal id conflicts."
      },
      "name()": {
        "details": "See {IGovernor-name}."
      },
      "proposalDeadline(uint256)": {
        "details": "See {IGovernor-proposalDeadline}."
      },
      "proposalEta(uint256)": {
        "details": "Public accessor to check the eta of a queued proposal"
      },
      "proposalSnapshot(uint256)": {
        "details": "See {IGovernor-proposalSnapshot}."
      },
      "proposalVotes(uint256)": {
        "details": "Accessor to the internal vote counts."
      },
      "queue(address[],uint256[],bytes[],bytes32)": {
        "details": "Function to queue a proposal to the timelock."
      },
      "quorumDenominator()": {
        "details": "Returns the quorum denominator. Defaults to 100, but may be overridden."
      },
      "quorumNumerator()": {
        "details": "Returns the current quorum numerator. See {quorumDenominator}."
      },
      "relay(address,uint256,bytes)": {
        "details": "Relays a transaction or function call to an arbitrary target. In cases where the governance executor is some contract other than the governor itself, like when using a timelock, this function can be invoked in a governance proposal to recover tokens or Ether that was sent to the governor contract by mistake. Note that if the executor is simply the governor itself, use of `relay` is redundant."
      },
      "setProposalThreshold(uint256)": {
        "details": "Update the proposal threshold. This operation can only be performed through a governance proposal. Emits a {ProposalThresholdSet} event."
      },
      "setVotingDelay(uint256)": {
        "details": "Update the voting delay. This operation can only be performed through a governance proposal. Emits a {VotingDelaySet} event."
      },
      "setVotingPeriod(uint256)": {
        "details": "Update the voting period. This operation can only be performed through a governance proposal. Emits a {VotingPeriodSet} event."
      },
      "timelock()": {
        "details": "Public accessor to check the address of the timelock"
      },
      "updateQuorumNumerator(uint256)": {
        "details": "Changes the quorum numerator. Emits a {QuorumNumeratorUpdated} event. Requirements: - Must be called through a governance proposal. - New numerator must be smaller or equal to the denominator."
      },
      "updateTimelock(address)": {
        "details": "Public endpoint to update the underlying timelock instance. Restricted to the timelock itself, so updates must be proposed, scheduled, and executed through governance proposals. CAUTION: It is not recommended to change the timelock while there are other queued governance proposals."
      },
      "version()": {
        "details": "See {IGovernor-version}."
      }
    },
    "version": 1
  },
  "userdoc": {
    "kind": "user",
    "methods": {},
    "version": 1
  },
  "storageLayout": {
    "storage": [
      {
        "astId": 830,
        "contract": "contracts/BTCLPGovernor.sol:BTCLPGovernor",
        "label": "_name",
        "offset": 0,
        "slot": "0",
        "type": "t_string_storage"
      },
      {
        "astId": 835,
        "contract": "contracts/BTCLPGovernor.sol:BTCLPGovernor",
        "label": "_proposals",
        "offset": 0,
        "slot": "1",
        "type": "t_mapping(t_uint256,t_struct(ProposalCore)828_storage)"
      },
      {
        "astId": 2888,
        "contract": "contracts/BTCLPGovernor.sol:BTCLPGovernor",
        "label": "_votingDelay",
        "offset": 0,
        "slot": "2",
        "type": "t_uint256"
      },
      {
        "astId": 2890,
        "contract": "contracts/BTCLPGovernor.sol:BTCLPGovernor",
        "label": "_votingPeriod",
        "offset": 0,
        "slot": "3",
        "type": "t_uint256"
      },
      {
        "astId": 2892,
        "contract": "contracts/BTCLPGovernor.sol:BTCLPGovernor",
        "label": "_proposalThreshold",
        "offset": 0,
        "slot": "4",
        "type": "t_uint256"
      },
      {
        "astId": 2682,
        "contract": "contracts/BTCLPGovernor.sol:BTCLPGovernor",
        "label": "_proposalVotes",
        "offset": 0,
        "slot": "5",
        "type": "t_mapping(t_uint256,t_struct(ProposalVote)2677_storage)"
      },
      {
        "astId": 3483,
        "contract": "contracts/BTCLPGovernor.sol:BTCLPGovernor",
        "label": "_quorumNumerator",
        "offset": 0,
        "slot": "6",
        "type": "t_uint256"
      },
      {
        "astId": 3071,
        "contract": "contracts/BTCLPGovernor.sol:BTCLPGovernor",
        "label": "_timelock",
        "offset": 0,
        "slot": "7",
        "type": "t_contract(TimelockController)2656"
      },
      {
        "astId": 3075,
        "contract": "contracts/BTCLPGovernor.sol:BTCLPGovernor",
        "label": "_timelockIds",
        "offset": 0,
        "slot": "8",
        "type": "t_mapping(t_uint256,t_bytes32)"
      }
    ],
    "types": {
      "t_address": {
        "encoding": "inplace",
        "label": "address",
        "numberOfBytes": "20"
      },
      "t_bool": {
        "encoding": "inplace",
        "label": "bool",
        "numberOfBytes": "1"
      },
      "t_bytes32": {
        "encoding": "inplace",
        "label": "bytes32",
        "numberOfBytes": "32"
      },
      "t_contract(TimelockController)2656": {
        "encoding": "inplace",
        "label": "contract TimelockController",
        "numberOfBytes": "20"
      },
      "t_mapping(t_address,t_bool)": {
        "encoding": "mapping",
        "key": "t_address",
        "label": "mapping(address => bool)",
        "numberOfBytes": "32",
        "value": "t_bool"
      },
      "t_mapping(t_uint256,t_bytes32)": {
        "encoding": "mapping",
        "key": "t_uint256",
        "label": "mapping(uint256 => bytes32)",
        "numberOfBytes": "32",
        "value": "t_bytes32"
      },
      "t_mapping(t_uint256,t_struct(ProposalCore)828_storage)": {
        "encoding": "mapping",
        "key": "t_uint256",
        "label": "mapping(uint256 => struct Governor.ProposalCore)",
        "numberOfBytes": "32",
        "value": "t_struct(ProposalCore)828_storage"
      },
      "t_mapping(t_uint256,t_struct(ProposalVote)2677_storage)": {
        "encoding": "mapping",
        "key": "t_uint256",
        "label": "mapping(uint256 => struct GovernorCountingSimple.ProposalVote)",
        "numberOfBytes": "32",
        "value": "t_struct(ProposalVote)2677_storage"
      },
      "t_string_storage": {
        "encoding": "bytes",
        "label": "string",
        "numberOfBytes": "32"
      },
      "t_struct(BlockNumber)6660_storage": {
        "encoding": "inplace",
        "label": "struct Timers.BlockNumber",
        "members": [
          {
            "astId": 6659,
            "contract": "contracts/BTCLPGovernor.sol:BTCLPGovernor",
            "label": "_deadline",
            "offset": 0,
            "slot": "0",
            "type": "t_uint64"
          }
        ],
        "numberOfBytes": "32"
      },
      "t_struct(ProposalCore)828_storage": {
        "encoding": "inplace",
        "label": "struct Governor.ProposalCore",
        "members": [
          {
            "astId": 820,
            "contract": "contracts/BTCLPGovernor.sol:BTCLPGovernor",
            "label": "voteStart",
            "offset": 0,
            "slot": "0",
            "type": "t_struct(BlockNumber)6660_storage"
          },
          {
            "astId": 823,
            "contract": "contracts/BTCLPGovernor.sol:BTCLPGovernor",
            "label": "voteEnd",
            "offset": 0,
            "slot": "1",
            "type": "t_struct(BlockNumber)6660_storage"
          },
          {
            "astId": 825,
            "contract": "contracts/BTCLPGovernor.sol:BTCLPGovernor",
            "label": "executed",
            "offset": 0,
            "slot": "2",
            "type": "t_bool"
          },
          {
            "astId": 827,
            "contract": "contracts/BTCLPGovernor.sol:BTCLPGovernor",
            "label": "canceled",
            "offset": 1,
            "slot": "2",
            "type": "t_bool"
          }
        ],
        "numberOfBytes": "96"
      },
      "t_struct(ProposalVote)2677_storage": {
        "encoding": "inplace",
        "label": "struct GovernorCountingSimple.ProposalVote",
        "members": [
          {
            "astId": 2668,
            "contract": "contracts/BTCLPGovernor.sol:BTCLPGovernor",
            "label": "againstVotes",
            "offset": 0,
            "slot": "0",
            "type": "t_uint256"
          },
          {
            "astId": 2670,
            "contract": "contracts/BTCLPGovernor.sol:BTCLPGovernor",
            "label": "forVotes",
            "offset": 0,
            "slot": "1",
            "type": "t_uint256"
          },
          {
            "astId": 2672,
            "contract": "contracts/BTCLPGovernor.sol:BTCLPGovernor",
            "label": "abstainVotes",
            "offset": 0,
            "slot": "2",
            "type": "t_uint256"
          },
          {
            "astId": 2676,
            "contract": "contracts/BTCLPGovernor.sol:BTCLPGovernor",
            "label": "hasVoted",
            "offset": 0,
            "slot": "3",
            "type": "t_mapping(t_address,t_bool)"
          }
        ],
        "numberOfBytes": "128"
      },
      "t_uint256": {
        "encoding": "inplace",
        "label": "uint256",
        "numberOfBytes": "32"
      },
      "t_uint64": {
        "encoding": "inplace",
        "label": "uint64",
        "numberOfBytes": "8"
      }
    }
  }
}