{
  "address": "0x73172A592733dA83C58884f968805f58c48461E8",
  "abi": [
    {
      "inputs": [],
      "stateMutability": "nonpayable",
      "type": "constructor"
    },
    {
      "anonymous": false,
      "inputs": [
        {
          "indexed": true,
          "internalType": "address",
          "name": "owner",
          "type": "address"
        },
        {
          "indexed": true,
          "internalType": "address",
          "name": "spender",
          "type": "address"
        },
        {
          "indexed": false,
          "internalType": "uint256",
          "name": "value",
          "type": "uint256"
        }
      ],
      "name": "Approval",
      "type": "event"
    },
    {
      "anonymous": false,
      "inputs": [
        {
          "indexed": true,
          "internalType": "address",
          "name": "delegator",
          "type": "address"
        },
        {
          "indexed": true,
          "internalType": "address",
          "name": "fromDelegate",
          "type": "address"
        },
        {
          "indexed": true,
          "internalType": "address",
          "name": "toDelegate",
          "type": "address"
        }
      ],
      "name": "DelegateChanged",
      "type": "event"
    },
    {
      "anonymous": false,
      "inputs": [
        {
          "indexed": true,
          "internalType": "address",
          "name": "delegate",
          "type": "address"
        },
        {
          "indexed": false,
          "internalType": "uint256",
          "name": "previousBalance",
          "type": "uint256"
        },
        {
          "indexed": false,
          "internalType": "uint256",
          "name": "newBalance",
          "type": "uint256"
        }
      ],
      "name": "DelegateVotesChanged",
      "type": "event"
    },
    {
      "anonymous": false,
      "inputs": [
        {
          "indexed": true,
          "internalType": "address",
          "name": "previousOwner",
          "type": "address"
        },
        {
          "indexed": true,
          "internalType": "address",
          "name": "newOwner",
          "type": "address"
        }
      ],
      "name": "OwnershipTransferred",
      "type": "event"
    },
    {
      "anonymous": false,
      "inputs": [
        {
          "indexed": false,
          "internalType": "uint256",
          "name": "id",
          "type": "uint256"
        }
      ],
      "name": "Snapshot",
      "type": "event"
    },
    {
      "anonymous": false,
      "inputs": [
        {
          "indexed": true,
          "internalType": "address",
          "name": "from",
          "type": "address"
        },
        {
          "indexed": true,
          "internalType": "address",
          "name": "to",
          "type": "address"
        },
        {
          "indexed": false,
          "internalType": "uint256",
          "name": "value",
          "type": "uint256"
        }
      ],
      "name": "Transfer",
      "type": "event"
    },
    {
      "inputs": [],
      "name": "DOMAIN_SEPARATOR",
      "outputs": [
        {
          "internalType": "bytes32",
          "name": "",
          "type": "bytes32"
        }
      ],
      "stateMutability": "view",
      "type": "function"
    },
    {
      "inputs": [
        {
          "internalType": "address",
          "name": "owner",
          "type": "address"
        },
        {
          "internalType": "address",
          "name": "spender",
          "type": "address"
        }
      ],
      "name": "allowance",
      "outputs": [
        {
          "internalType": "uint256",
          "name": "",
          "type": "uint256"
        }
      ],
      "stateMutability": "view",
      "type": "function"
    },
    {
      "inputs": [
        {
          "internalType": "address",
          "name": "spender",
          "type": "address"
        },
        {
          "internalType": "uint256",
          "name": "amount",
          "type": "uint256"
        }
      ],
      "name": "approve",
      "outputs": [
        {
          "internalType": "bool",
          "name": "",
          "type": "bool"
        }
      ],
      "stateMutability": "nonpayable",
      "type": "function"
    },
    {
      "inputs": [
        {
          "internalType": "address",
          "name": "account",
          "type": "address"
        }
      ],
      "name": "balanceOf",
      "outputs": [
        {
          "internalType": "uint256",
          "name": "",
          "type": "uint256"
        }
      ],
      "stateMutability": "view",
      "type": "function"
    },
    {
      "inputs": [
        {
          "internalType": "address",
          "name": "account",
          "type": "address"
        },
        {
          "internalType": "uint256",
          "name": "snapshotId",
          "type": "uint256"
        }
      ],
      "name": "balanceOfAt",
      "outputs": [
        {
          "internalType": "uint256",
          "name": "",
          "type": "uint256"
        }
      ],
      "stateMutability": "view",
      "type": "function"
    },
    {
      "inputs": [
        {
          "internalType": "uint256",
          "name": "amount",
          "type": "uint256"
        }
      ],
      "name": "burn",
      "outputs": [],
      "stateMutability": "nonpayable",
      "type": "function"
    },
    {
      "inputs": [
        {
          "internalType": "address",
          "name": "account",
          "type": "address"
        },
        {
          "internalType": "uint256",
          "name": "amount",
          "type": "uint256"
        }
      ],
      "name": "burnFrom",
      "outputs": [],
      "stateMutability": "nonpayable",
      "type": "function"
    },
    {
      "inputs": [
        {
          "internalType": "address",
          "name": "account",
          "type": "address"
        },
        {
          "internalType": "uint32",
          "name": "pos",
          "type": "uint32"
        }
      ],
      "name": "checkpoints",
      "outputs": [
        {
          "components": [
            {
              "internalType": "uint32",
              "name": "fromBlock",
              "type": "uint32"
            },
            {
              "internalType": "uint224",
              "name": "votes",
              "type": "uint224"
            }
          ],
          "internalType": "struct ERC20Votes.Checkpoint",
          "name": "",
          "type": "tuple"
        }
      ],
      "stateMutability": "view",
      "type": "function"
    },
    {
      "inputs": [],
      "name": "decimals",
      "outputs": [
        {
          "internalType": "uint8",
          "name": "",
          "type": "uint8"
        }
      ],
      "stateMutability": "view",
      "type": "function"
    },
    {
      "inputs": [
        {
          "internalType": "address",
          "name": "spender",
          "type": "address"
        },
        {
          "internalType": "uint256",
          "name": "subtractedValue",
          "type": "uint256"
        }
      ],
      "name": "decreaseAllowance",
      "outputs": [
        {
          "internalType": "bool",
          "name": "",
          "type": "bool"
        }
      ],
      "stateMutability": "nonpayable",
      "type": "function"
    },
    {
      "inputs": [
        {
          "internalType": "address",
          "name": "delegatee",
          "type": "address"
        }
      ],
      "name": "delegate",
      "outputs": [],
      "stateMutability": "nonpayable",
      "type": "function"
    },
    {
      "inputs": [
        {
          "internalType": "address",
          "name": "delegatee",
          "type": "address"
        },
        {
          "internalType": "uint256",
          "name": "nonce",
          "type": "uint256"
        },
        {
          "internalType": "uint256",
          "name": "expiry",
          "type": "uint256"
        },
        {
          "internalType": "uint8",
          "name": "v",
          "type": "uint8"
        },
        {
          "internalType": "bytes32",
          "name": "r",
          "type": "bytes32"
        },
        {
          "internalType": "bytes32",
          "name": "s",
          "type": "bytes32"
        }
      ],
      "name": "delegateBySig",
      "outputs": [],
      "stateMutability": "nonpayable",
      "type": "function"
    },
    {
      "inputs": [
        {
          "internalType": "address",
          "name": "account",
          "type": "address"
        }
      ],
      "name": "delegates",
      "outputs": [
        {
          "internalType": "address",
          "name": "",
          "type": "address"
        }
      ],
      "stateMutability": "view",
      "type": "function"
    },
    {
      "inputs": [
        {
          "internalType": "uint256",
          "name": "blockNumber",
          "type": "uint256"
        }
      ],
      "name": "getPastTotalSupply",
      "outputs": [
        {
          "internalType": "uint256",
          "name": "",
          "type": "uint256"
        }
      ],
      "stateMutability": "view",
      "type": "function"
    },
    {
      "inputs": [
        {
          "internalType": "address",
          "name": "account",
          "type": "address"
        },
        {
          "internalType": "uint256",
          "name": "blockNumber",
          "type": "uint256"
        }
      ],
      "name": "getPastVotes",
      "outputs": [
        {
          "internalType": "uint256",
          "name": "",
          "type": "uint256"
        }
      ],
      "stateMutability": "view",
      "type": "function"
    },
    {
      "inputs": [
        {
          "internalType": "address",
          "name": "account",
          "type": "address"
        }
      ],
      "name": "getVotes",
      "outputs": [
        {
          "internalType": "uint256",
          "name": "",
          "type": "uint256"
        }
      ],
      "stateMutability": "view",
      "type": "function"
    },
    {
      "inputs": [
        {
          "internalType": "address",
          "name": "spender",
          "type": "address"
        },
        {
          "internalType": "uint256",
          "name": "addedValue",
          "type": "uint256"
        }
      ],
      "name": "increaseAllowance",
      "outputs": [
        {
          "internalType": "bool",
          "name": "",
          "type": "bool"
        }
      ],
      "stateMutability": "nonpayable",
      "type": "function"
    },
    {
      "inputs": [],
      "name": "minimumMintInterval",
      "outputs": [
        {
          "internalType": "uint256",
          "name": "",
          "type": "uint256"
        }
      ],
      "stateMutability": "view",
      "type": "function"
    },
    {
      "inputs": [
        {
          "internalType": "address",
          "name": "to",
          "type": "address"
        },
        {
          "internalType": "uint256",
          "name": "amount",
          "type": "uint256"
        }
      ],
      "name": "mint",
      "outputs": [],
      "stateMutability": "nonpayable",
      "type": "function"
    },
    {
      "inputs": [],
      "name": "mintCap",
      "outputs": [
        {
          "internalType": "uint256",
          "name": "",
          "type": "uint256"
        }
      ],
      "stateMutability": "view",
      "type": "function"
    },
    {
      "inputs": [],
      "name": "name",
      "outputs": [
        {
          "internalType": "string",
          "name": "",
          "type": "string"
        }
      ],
      "stateMutability": "view",
      "type": "function"
    },
    {
      "inputs": [],
      "name": "nextMint",
      "outputs": [
        {
          "internalType": "uint256",
          "name": "",
          "type": "uint256"
        }
      ],
      "stateMutability": "view",
      "type": "function"
    },
    {
      "inputs": [
        {
          "internalType": "address",
          "name": "owner",
          "type": "address"
        }
      ],
      "name": "nonces",
      "outputs": [
        {
          "internalType": "uint256",
          "name": "",
          "type": "uint256"
        }
      ],
      "stateMutability": "view",
      "type": "function"
    },
    {
      "inputs": [
        {
          "internalType": "address",
          "name": "account",
          "type": "address"
        }
      ],
      "name": "numCheckpoints",
      "outputs": [
        {
          "internalType": "uint32",
          "name": "",
          "type": "uint32"
        }
      ],
      "stateMutability": "view",
      "type": "function"
    },
    {
      "inputs": [],
      "name": "owner",
      "outputs": [
        {
          "internalType": "address",
          "name": "",
          "type": "address"
        }
      ],
      "stateMutability": "view",
      "type": "function"
    },
    {
      "inputs": [
        {
          "internalType": "address",
          "name": "owner",
          "type": "address"
        },
        {
          "internalType": "address",
          "name": "spender",
          "type": "address"
        },
        {
          "internalType": "uint256",
          "name": "value",
          "type": "uint256"
        },
        {
          "internalType": "uint256",
          "name": "deadline",
          "type": "uint256"
        },
        {
          "internalType": "uint8",
          "name": "v",
          "type": "uint8"
        },
        {
          "internalType": "bytes32",
          "name": "r",
          "type": "bytes32"
        },
        {
          "internalType": "bytes32",
          "name": "s",
          "type": "bytes32"
        }
      ],
      "name": "permit",
      "outputs": [],
      "stateMutability": "nonpayable",
      "type": "function"
    },
    {
      "inputs": [],
      "name": "renounceOwnership",
      "outputs": [],
      "stateMutability": "nonpayable",
      "type": "function"
    },
    {
      "inputs": [],
      "name": "snapshot",
      "outputs": [],
      "stateMutability": "nonpayable",
      "type": "function"
    },
    {
      "inputs": [],
      "name": "symbol",
      "outputs": [
        {
          "internalType": "string",
          "name": "",
          "type": "string"
        }
      ],
      "stateMutability": "view",
      "type": "function"
    },
    {
      "inputs": [],
      "name": "totalSupply",
      "outputs": [
        {
          "internalType": "uint256",
          "name": "",
          "type": "uint256"
        }
      ],
      "stateMutability": "view",
      "type": "function"
    },
    {
      "inputs": [
        {
          "internalType": "uint256",
          "name": "snapshotId",
          "type": "uint256"
        }
      ],
      "name": "totalSupplyAt",
      "outputs": [
        {
          "internalType": "uint256",
          "name": "",
          "type": "uint256"
        }
      ],
      "stateMutability": "view",
      "type": "function"
    },
    {
      "inputs": [
        {
          "internalType": "address",
          "name": "to",
          "type": "address"
        },
        {
          "internalType": "uint256",
          "name": "amount",
          "type": "uint256"
        }
      ],
      "name": "transfer",
      "outputs": [
        {
          "internalType": "bool",
          "name": "",
          "type": "bool"
        }
      ],
      "stateMutability": "nonpayable",
      "type": "function"
    },
    {
      "inputs": [
        {
          "internalType": "address",
          "name": "_to",
          "type": "address"
        },
        {
          "internalType": "uint256",
          "name": "_value",
          "type": "uint256"
        },
        {
          "internalType": "bytes",
          "name": "_data",
          "type": "bytes"
        }
      ],
      "name": "transferAndCall",
      "outputs": [
        {
          "internalType": "bool",
          "name": "success",
          "type": "bool"
        }
      ],
      "stateMutability": "nonpayable",
      "type": "function"
    },
    {
      "inputs": [
        {
          "internalType": "address",
          "name": "from",
          "type": "address"
        },
        {
          "internalType": "address",
          "name": "to",
          "type": "address"
        },
        {
          "internalType": "uint256",
          "name": "amount",
          "type": "uint256"
        }
      ],
      "name": "transferFrom",
      "outputs": [
        {
          "internalType": "bool",
          "name": "",
          "type": "bool"
        }
      ],
      "stateMutability": "nonpayable",
      "type": "function"
    },
    {
      "inputs": [
        {
          "internalType": "address",
          "name": "newOwner",
          "type": "address"
        }
      ],
      "name": "transferOwnership",
      "outputs": [],
      "stateMutability": "nonpayable",
      "type": "function"
    }
  ],
  "transactionHash": "0xf4d81241aa48cc52eee599840dea0c10e1a37d2ecc5beb781cd01e8fdc4f3cc3",
  "args": [],
  "numDeployments": 1,
  "solcInputHash": "c673e363a950d162cc4e095a7d22b92a",
  "bytecode": "0x6101606040527f6e71edae12b1b97f4d1f60370fef10105fa2faae0126114a169c64845d6126c9610140523480156200003757600080fd5b506040518060400160405280601881526020017f426974636f696e204c6f74746572792050726f746f636f6c000000000000000081525080604051806040016040528060018152602001603160f81b8152506040518060400160405280601881526020017f426974636f696e204c6f74746572792050726f746f636f6c00000000000000008152506040518060400160405280600581526020016404254434c560dc1b8152508160039080519060200190620000f592919062000a0f565b5080516200010b90600490602084019062000a0f565b50505062000128620001226200020b60201b60201c565b6200020f565b815160208084019190912082518383012060e08290526101008190524660a0818152604080517f8b73c3c69bb8fe3d512ecc4cf759cc79239f7b179b0ffacaa9a75d522b39400f81880181905281830187905260608201869052608082019490945230818401528151808203909301835260c00190528051940193909320919290916080523060601b60c0526101205250620001f29350339250620001ce915050601290565b620001db90600a62000b0f565b620001ec906402540be40062000bce565b62000261565b620002026301e133804262000aab565b600e5562000c73565b3390565b600980546001600160a01b038381166001600160a01b0319831681179093556040519116919082907f8be0079c531659141344cd1fd0a4f28419497f9722a3daafe3b4186f6b6457e090600090a35050565b6200027882826200027c60201b620010051760201c565b5050565b6200029382826200033360201b620010951760201c565b6001600160e01b03620002a7620004308216565b1115620003145760405162461bcd60e51b815260206004820152603060248201527f4552433230566f7465733a20746f74616c20737570706c79207269736b73206f60448201526f766572666c6f77696e6720766f74657360801b60648201526084015b60405180910390fd5b6200032d600d620011766200043660201b17836200044d565b50505050565b6001600160a01b0382166200038b5760405162461bcd60e51b815260206004820152601f60248201527f45524332303a206d696e7420746f20746865207a65726f20616464726573730060448201526064016200030b565b6200039960008383620005ff565b8060026000828254620003ad919062000aab565b90915550506001600160a01b03821660009081526020819052604081208054839290620003dc90849062000aab565b90915550506040518181526001600160a01b038316906000907fddf252ad1be2c89b69c2b068fc378daa952ba7f163c4a11628f55a4df523b3ef9060200160405180910390a362000278600083836200061c565b60025490565b600062000444828462000aab565b90505b92915050565b8254600090819080156200049f57856200046960018362000bf0565b815481106200047c576200047c62000c5d565b60009182526020909120015464010000000090046001600160e01b0316620004a2565b60005b6001600160e01b03169250620004b983858760201c565b9150600081118015620004fd57504386620004d660018462000bf0565b81548110620004e957620004e962000c5d565b60009182526020909120015463ffffffff16145b15620005715762000519826200063460201b620011821760201c565b866200052760018462000bf0565b815481106200053a576200053a62000c5d565b9060005260206000200160000160046101000a8154816001600160e01b0302191690836001600160e01b03160217905550620005f6565b8560405180604001604052806200059343620006a360201b620011ef1760201c565b63ffffffff168152602001620005b4856200063460201b620011821760201c565b6001600160e01b0390811690915282546001810184556000938452602093849020835194909301519091166401000000000263ffffffff909316929092179101555b50935093915050565b620006178383836200070a60201b620012541760201c565b505050565b620006178383836200077660201b620012a11760201c565b60006001600160e01b038211156200069f5760405162461bcd60e51b815260206004820152602760248201527f53616665436173743a2076616c756520646f65736e27742066697420696e20326044820152663234206269747360c81b60648201526084016200030b565b5090565b600063ffffffff8211156200069f5760405162461bcd60e51b815260206004820152602660248201527f53616665436173743a2076616c756520646f65736e27742066697420696e203360448201526532206269747360d01b60648201526084016200030b565b620007228383836200061760201b620012731760201c565b6001600160a01b03831662000746576200073c82620007c2565b62000617620007fa565b6001600160a01b03821662000760576200073c83620007c2565b6200076b83620007c2565b6200061782620007c2565b6200078e8383836200061760201b620012731760201c565b6001600160a01b038381166000908152600b602052604080822054858416835291205462000617929182169116836200080c565b6001600160a01b03811660009081526005602090815260408083209183905290912054620007f7919062000947565b62000947565b50565b6200080a6006620007f160025490565b565b816001600160a01b0316836001600160a01b0316141580156200082f5750600081115b1562000617576001600160a01b03831615620008bc576001600160a01b0383166000908152600c602090815260408220829162000879919062000996901b620012d317856200044d565b91509150846001600160a01b0316600080516020620035b48339815191528383604051620008b1929190918252602082015260400190565b60405180910390a250505b6001600160a01b0382161562000617576001600160a01b0382166000908152600c602090815260408220829162000900919062000436901b6200117617856200044d565b91509150836001600160a01b0316600080516020620035b4833981519152838360405162000938929190918252602082015260400190565b60405180910390a25050505050565b600062000953620009a4565b9050806200096184620009c2565b101562000617578254600180820185556000858152602080822090930193909355938401805494850181558252902090910155565b600062000444828462000bf0565b6000620009bd600862000a0b60201b620012df1760201c565b905090565b8054600090620009d457506000919050565b81548290620009e69060019062000bf0565b81548110620009f957620009f962000c5d565b90600052602060002001549050919050565b5490565b82805462000a1d9062000c0a565b90600052602060002090601f01602090048101928262000a41576000855562000a8c565b82601f1062000a5c57805160ff191683800117855562000a8c565b8280016001018555821562000a8c579182015b8281111562000a8c57825182559160200191906001019062000a6f565b506200069f9291505b808211156200069f576000815560010162000a95565b6000821982111562000ac15762000ac162000c47565b500190565b600181815b8085111562000b0757816000190482111562000aeb5762000aeb62000c47565b8085161562000af957918102915b93841c939080029062000acb565b509250929050565b60006200044460ff84168360008262000b2b5750600162000447565b8162000b3a5750600062000447565b816001811462000b53576002811462000b5e5762000b7e565b600191505062000447565b60ff84111562000b725762000b7262000c47565b50506001821b62000447565b5060208310610133831016604e8410600b841016171562000ba3575081810a62000447565b62000baf838362000ac6565b806000190482111562000bc65762000bc662000c47565b029392505050565b600081600019048311821515161562000beb5762000beb62000c47565b500290565b60008282101562000c055762000c0562000c47565b500390565b600181811c9082168062000c1f57607f821691505b6020821081141562000c4157634e487b7160e01b600052602260045260246000fd5b50919050565b634e487b7160e01b600052601160045260246000fd5b634e487b7160e01b600052603260045260246000fd5b60805160a05160c05160601c60e0516101005161012051610140516128e362000cd16000396000610dd9015260006116ea01526000611739015260006117140152600061166d01526000611697015260006116c101526128e36000f3fe608060405234801561001057600080fd5b50600436106102115760003560e01c8063715018a6116101255780639ab24eb0116100ad578063cf6654431161007c578063cf66544314610483578063d505accf1461048c578063dd62ed3e1461049f578063f1127ed8146104d8578063f2fde38b1461051557600080fd5b80639ab24eb014610437578063a457c2d71461044a578063a9059cbb1461045d578063c3cda5201461047057600080fd5b80638da5cb5b116100f45780638da5cb5b146103f05780638e539e8c1461040157806395d89b41146104145780639711715a1461041c578063981b24d01461042457600080fd5b8063715018a6146103ba57806376c71ca1146103c257806379cc6790146103ca5780637ecebe00146103dd57600080fd5b80634000aea0116101a8578063515b612a11610177578063515b612a14610307578063587cde1e146103125780635c19a95c146103565780636fcfff451461036957806370a082311461039157600080fd5b80634000aea0146102b957806340c10f19146102cc57806342966c68146102e15780634ee2cd7e146102f457600080fd5b8063313ce567116101e4578063313ce5671461027c5780633644e5151461028b57806339509351146102935780633a46b1a8146102a657600080fd5b806306fdde0314610216578063095ea7b31461023457806318160ddd1461025757806323b872dd14610269575b600080fd5b61021e610528565b60405161022b9190612748565b60405180910390f35b61024761024236600461252e565b6105ba565b604051901515815260200161022b565b6002545b60405190815260200161022b565b610247610277366004612488565b6105d4565b6040516012815260200161022b565b61025b6105f8565b6102476102a136600461252e565b610607565b61025b6102b436600461252e565b610646565b6102476102c7366004612558565b6106c5565b6102df6102da36600461252e565b610855565b005b6102df6102ef3660046126bb565b610965565b61025b61030236600461252e565b610972565b61025b6301e1338081565b61033e61032036600461243a565b6001600160a01b039081166000908152600b60205260409020541690565b6040516001600160a01b03909116815260200161022b565b6102df61036436600461243a565b6109cb565b61037c61037736600461243a565b6109d5565b60405163ffffffff909116815260200161022b565b61025b61039f36600461243a565b6001600160a01b031660009081526020819052604090205490565b6102df6109f7565b61025b606481565b6102df6103d836600461252e565b610a2d565b61025b6103eb36600461243a565b610a42565b6009546001600160a01b031661033e565b61025b61040f3660046126bb565b610a60565b61021e610abc565b6102df610acb565b61025b6104323660046126bb565b610afd565b61025b61044536600461243a565b610b28565b61024761045836600461252e565b610baf565b61024761046b36600461252e565b610c41565b6102df61047e366004612623565b610c4f565b61025b600e5481565b6102df61049a3660046124c4565b610d85565b61025b6104ad366004612455565b6001600160a01b03918216600090815260016020908152604080832093909416825291909152205490565b6104eb6104e636600461267b565b610ee9565b60408051825163ffffffff1681526020928301516001600160e01b0316928101929092520161022b565b6102df61052336600461243a565b610f6d565b60606003805461053790612800565b80601f016020809104026020016040519081016040528092919081815260200182805461056390612800565b80156105b05780601f10610585576101008083540402835291602001916105b0565b820191906000526020600020905b81548152906001019060200180831161059357829003601f168201915b5050505050905090565b6000336105c88185856112e3565b60019150505b92915050565b6000336105e2858285611407565b6105ed858585611493565b506001949350505050565b6000610602611660565b905090565b3360008181526001602090815260408083206001600160a01b03871684529091528120549091906105c89082908690610641908790612790565b6112e3565b600043821061069c5760405162461bcd60e51b815260206004820152601f60248201527f4552433230566f7465733a20626c6f636b206e6f7420796574206d696e65640060448201526064015b60405180910390fd5b6001600160a01b0383166000908152600c602052604090206106be9083611787565b9392505050565b60003361072f5760405162461bcd60e51b815260206004820152603260248201527f4552433637373a2063616e2774207265636569766520746f6b656e732066726f6044820152716d20746865207a65726f206164647265737360701b6064820152608401610693565b6001600160a01b0384166107905760405162461bcd60e51b815260206004820152602260248201527f4552433637373a2063616e27742073656e6420746f207a65726f206164647265604482015261737360f01b6064820152608401610693565b6001600160a01b0384163014156108005760405162461bcd60e51b815260206004820152602e60248201527f4552433637373a2063616e27742073656e6420746f6b656e7320746f2074686560448201526d20746f6b656e206164647265737360901b6064820152608401610693565b61080b338585611493565b6040518381526001600160a01b03851690339060008051602061288e8339815191529060200160405180910390a3833b1561084b5761084b848484611844565b5060019392505050565b6009546001600160a01b0316331461087f5760405162461bcd60e51b81526004016106939061275b565b612710606461088d60025490565b61089791906127ca565b6108a191906127a8565b8111156108fb5760405162461bcd60e51b815260206004820152602260248201527f4254434c503a204d696e742065786365656473206d6178696d756d20616d6f756044820152611b9d60f21b6064820152608401610693565b600e544210156109465760405162461bcd60e51b8152602060048201526016602482015275109510d3140e8810d85b9b9bdd081b5a5b9d081e595d60521b6044820152606401610693565b6109546301e1338042612790565b600e5561096182826118ae565b5050565b61096f33826118b8565b50565b6001600160a01b0382166000908152600560205260408120819081906109999085906118c2565b91509150816109c0576001600160a01b0385166000908152602081905260409020546109c2565b805b95945050505050565b61096f33826119b9565b6001600160a01b0381166000908152600c60205260408120546105ce906111ef565b6009546001600160a01b03163314610a215760405162461bcd60e51b81526004016106939061275b565b610a2b6000611a32565b565b610a38823383611407565b61096182826118b8565b6001600160a01b0381166000908152600a60205260408120546105ce565b6000438210610ab15760405162461bcd60e51b815260206004820152601f60248201527f4552433230566f7465733a20626c6f636b206e6f7420796574206d696e6564006044820152606401610693565b6105ce600d83611787565b60606004805461053790612800565b6009546001600160a01b03163314610af55760405162461bcd60e51b81526004016106939061275b565b61096f611a84565b6000806000610b0d8460066118c2565b9150915081610b1e57600254610b20565b805b949350505050565b6001600160a01b0381166000908152600c60205260408120548015610b9c576001600160a01b0383166000908152600c60205260409020610b6a6001836127e9565b81548110610b7a57610b7a612861565b60009182526020909120015464010000000090046001600160e01b0316610b9f565b60005b6001600160e01b03169392505050565b3360008181526001602090815260408083206001600160a01b038716845290915281205490919083811015610c345760405162461bcd60e51b815260206004820152602560248201527f45524332303a2064656372656173656420616c6c6f77616e63652062656c6f77604482015264207a65726f60d81b6064820152608401610693565b6105ed82868684036112e3565b6000336105c8818585611493565b83421115610c9f5760405162461bcd60e51b815260206004820152601d60248201527f4552433230566f7465733a207369676e617475726520657870697265640000006044820152606401610693565b604080517fe48329057bfd03d55e49b547132e39cffd9c1820ad7b9d4c5307691425d15adf60208201526001600160a01b038816918101919091526060810186905260808101859052600090610d1990610d119060a00160405160208183030381529060405280519060200120611ade565b858585611b2c565b9050610d2481611b54565b8614610d725760405162461bcd60e51b815260206004820152601960248201527f4552433230566f7465733a20696e76616c6964206e6f6e6365000000000000006044820152606401610693565b610d7c81886119b9565b50505050505050565b83421115610dd55760405162461bcd60e51b815260206004820152601d60248201527f45524332305065726d69743a206578706972656420646561646c696e650000006044820152606401610693565b60007f0000000000000000000000000000000000000000000000000000000000000000888888610e048c611b54565b6040805160208101969096526001600160a01b0394851690860152929091166060840152608083015260a082015260c0810186905260e0016040516020818303038152906040528051906020012090506000610e5f82611ade565b90506000610e6f82878787611b2c565b9050896001600160a01b0316816001600160a01b031614610ed25760405162461bcd60e51b815260206004820152601e60248201527f45524332305065726d69743a20696e76616c6964207369676e617475726500006044820152606401610693565b610edd8a8a8a6112e3565b50505050505050505050565b60408051808201909152600080825260208201526001600160a01b0383166000908152600c60205260409020805463ffffffff8416908110610f2d57610f2d612861565b60009182526020918290206040805180820190915291015463ffffffff8116825264010000000090046001600160e01b0316918101919091529392505050565b6009546001600160a01b03163314610f975760405162461bcd60e51b81526004016106939061275b565b6001600160a01b038116610ffc5760405162461bcd60e51b815260206004820152602660248201527f4f776e61626c653a206e6577206f776e657220697320746865207a65726f206160448201526564647265737360d01b6064820152608401610693565b61096f81611a32565b61100f8282611095565b6002546001600160e01b0310156110815760405162461bcd60e51b815260206004820152603060248201527f4552433230566f7465733a20746f74616c20737570706c79207269736b73206f60448201526f766572666c6f77696e6720766f74657360801b6064820152608401610693565b61108f600d61117683611b7c565b50505050565b6001600160a01b0382166110eb5760405162461bcd60e51b815260206004820152601f60248201527f45524332303a206d696e7420746f20746865207a65726f2061646472657373006044820152606401610693565b6110f760008383611cf5565b80600260008282546111099190612790565b90915550506001600160a01b03821660009081526020819052604081208054839290611136908490612790565b90915550506040518181526001600160a01b0383169060009060008051602061288e8339815191529060200160405180910390a361096160008383611d00565b60006106be8284612790565b60006001600160e01b038211156111eb5760405162461bcd60e51b815260206004820152602760248201527f53616665436173743a2076616c756520646f65736e27742066697420696e20326044820152663234206269747360c81b6064820152608401610693565b5090565b600063ffffffff8211156111eb5760405162461bcd60e51b815260206004820152602660248201527f53616665436173743a2076616c756520646f65736e27742066697420696e203360448201526532206269747360d01b6064820152608401610693565b6001600160a01b0383166112785761126b82611d0b565b611273611d3d565b505050565b6001600160a01b03821661128f5761126b83611d0b565b61129883611d0b565b61127382611d0b565b6001600160a01b038381166000908152600b602052604080822054858416835291205461127392918216911683611d4b565b60006106be82846127e9565b5490565b6001600160a01b0383166113455760405162461bcd60e51b8152602060048201526024808201527f45524332303a20617070726f76652066726f6d20746865207a65726f206164646044820152637265737360e01b6064820152608401610693565b6001600160a01b0382166113a65760405162461bcd60e51b815260206004820152602260248201527f45524332303a20617070726f766520746f20746865207a65726f206164647265604482015261737360f01b6064820152608401610693565b6001600160a01b0383811660008181526001602090815260408083209487168084529482529182902085905590518481527f8c5be1e5ebec7d5bd14f71427d1e84f3dd0314c0f7b2291e5b200ac8c7c3b925910160405180910390a3505050565b6001600160a01b03838116600090815260016020908152604080832093861683529290522054600019811461108f57818110156114865760405162461bcd60e51b815260206004820152601d60248201527f45524332303a20696e73756666696369656e7420616c6c6f77616e63650000006044820152606401610693565b61108f84848484036112e3565b6001600160a01b0383166114f75760405162461bcd60e51b815260206004820152602560248201527f45524332303a207472616e736665722066726f6d20746865207a65726f206164604482015264647265737360d81b6064820152608401610693565b6001600160a01b0382166115595760405162461bcd60e51b815260206004820152602360248201527f45524332303a207472616e7366657220746f20746865207a65726f206164647260448201526265737360e81b6064820152608401610693565b611564838383611cf5565b6001600160a01b038316600090815260208190526040902054818110156115dc5760405162461bcd60e51b815260206004820152602660248201527f45524332303a207472616e7366657220616d6f756e7420657863656564732062604482015265616c616e636560d01b6064820152608401610693565b6001600160a01b03808516600090815260208190526040808220858503905591851681529081208054849290611613908490612790565b92505081905550826001600160a01b0316846001600160a01b031660008051602061288e8339815191528460405161164d91815260200190565b60405180910390a361108f848484611d00565b6000306001600160a01b037f0000000000000000000000000000000000000000000000000000000000000000161480156116b957507f000000000000000000000000000000000000000000000000000000000000000046145b156116e357507f000000000000000000000000000000000000000000000000000000000000000090565b50604080517f00000000000000000000000000000000000000000000000000000000000000006020808301919091527f0000000000000000000000000000000000000000000000000000000000000000828401527f000000000000000000000000000000000000000000000000000000000000000060608301524660808301523060a0808401919091528351808403909101815260c0909201909252805191012090565b8154600090815b818110156117eb5760006117a28284611e88565b9050848682815481106117b7576117b7612861565b60009182526020909120015463ffffffff1611156117d7578092506117e5565b6117e2816001612790565b91505b5061178e565b811561182f57846117fd6001846127e9565b8154811061180d5761180d612861565b60009182526020909120015464010000000090046001600160e01b0316611832565b60005b6001600160e01b031695945050505050565b604051635260769b60e11b815283906001600160a01b0382169063a4c0ed369061187690339087908790600401612721565b600060405180830381600087803b15801561189057600080fd5b505af11580156118a4573d6000803e3d6000fd5b5050505050505050565b6109618282611005565b6109618282611ea3565b6000806000841161190e5760405162461bcd60e51b815260206004820152601660248201527504552433230536e617073686f743a20696420697320360541b6044820152606401610693565b611916611ebb565b8411156119655760405162461bcd60e51b815260206004820152601d60248201527f4552433230536e617073686f743a206e6f6e6578697374656e742069640000006044820152606401610693565b60006119718486611ec6565b845490915081141561198a5760008092509250506119b2565b60018460010182815481106119a1576119a1612861565b906000526020600020015492509250505b9250929050565b6001600160a01b038281166000818152600b60208181526040808420805485845282862054949093528787166001600160a01b03198416811790915590519190951694919391928592917f3134e8a2e6d97e929a7e54011ea5485d7d196dd5f0ba4d4ef95803e8e3fc257f9190a461108f828483611d4b565b600980546001600160a01b038381166001600160a01b0319831681179093556040519116919082907f8be0079c531659141344cd1fd0a4f28419497f9722a3daafe3b4186f6b6457e090600090a35050565b6000611a94600880546001019055565b6000611a9e611ebb565b90507f8030e83b04d87bef53480e26263266d6ca66863aa8506aca6f2559d18aa1cb6781604051611ad191815260200190565b60405180910390a1919050565b60006105ce611aeb611660565b8360405161190160f01b6020820152602281018390526042810182905260009060620160405160208183030381529060405280519060200120905092915050565b6000806000611b3d87878787611f89565b91509150611b4a81612076565b5095945050505050565b6001600160a01b0381166000908152600a602052604090208054600181018255905b50919050565b825460009081908015611bc75785611b956001836127e9565b81548110611ba557611ba5612861565b60009182526020909120015464010000000090046001600160e01b0316611bca565b60005b6001600160e01b03169250611be383858763ffffffff16565b9150600081118015611c2157504386611bfd6001846127e9565b81548110611c0d57611c0d612861565b60009182526020909120015463ffffffff16145b15611c8157611c2f82611182565b86611c3b6001846127e9565b81548110611c4b57611c4b612861565b9060005260206000200160000160046101000a8154816001600160e01b0302191690836001600160e01b03160217905550611cec565b856040518060400160405280611c96436111ef565b63ffffffff168152602001611caa85611182565b6001600160e01b0390811690915282546001810184556000938452602093849020835194909301519091166401000000000263ffffffff909316929092179101555b50935093915050565b611273838383611254565b6112738383836112a1565b6001600160a01b0381166000908152600560209081526040808320918390529091205461096f9190612231565b612231565b610a2b6006611d3860025490565b816001600160a01b0316836001600160a01b031614158015611d6d5750600081115b15611273576001600160a01b03831615611dfb576001600160a01b0383166000908152600c602052604081208190611da8906112d385611b7c565b91509150846001600160a01b03167fdec2bacdd2f05b59de34da9b523dff8be42e5e38e818c82fdb0bae774387a7248383604051611df0929190918252602082015260400190565b60405180910390a250505b6001600160a01b03821615611273576001600160a01b0382166000908152600c602052604081208190611e319061117685611b7c565b91509150836001600160a01b03167fdec2bacdd2f05b59de34da9b523dff8be42e5e38e818c82fdb0bae774387a7248383604051611e79929190918252602082015260400190565b60405180910390a25050505050565b6000611e9760028484186127a8565b6106be90848416612790565b611ead828261227b565b61108f600d6112d383611b7c565b600061060260085490565b8154600090611ed7575060006105ce565b82546000905b80821015611f33576000611ef18383611e88565b905084868281548110611f0657611f06612861565b90600052602060002001541115611f1f57809150611f2d565b611f2a816001612790565b92505b50611edd565b600082118015611f6857508385611f4b6001856127e9565b81548110611f5b57611f5b612861565b9060005260206000200154145b15611f8157611f786001836127e9565b925050506105ce565b5090506105ce565b6000807f7fffffffffffffffffffffffffffffff5d576e7357a4501ddfe92f46681b20a0831115611fc0575060009050600361206d565b8460ff16601b14158015611fd857508460ff16601c14155b15611fe9575060009050600461206d565b6040805160008082526020820180845289905260ff881692820192909252606081018690526080810185905260019060a0016020604051602081039080840390855afa15801561203d573d6000803e3d6000fd5b5050604051601f1901519150506001600160a01b0381166120665760006001925092505061206d565b9150600090505b94509492505050565b600081600481111561208a5761208a61284b565b14156120935750565b60018160048111156120a7576120a761284b565b14156120f55760405162461bcd60e51b815260206004820152601860248201527f45434453413a20696e76616c6964207369676e617475726500000000000000006044820152606401610693565b60028160048111156121095761210961284b565b14156121575760405162461bcd60e51b815260206004820152601f60248201527f45434453413a20696e76616c6964207369676e6174757265206c656e677468006044820152606401610693565b600381600481111561216b5761216b61284b565b14156121c45760405162461bcd60e51b815260206004820152602260248201527f45434453413a20696e76616c6964207369676e6174757265202773272076616c604482015261756560f01b6064820152608401610693565b60048160048111156121d8576121d861284b565b141561096f5760405162461bcd60e51b815260206004820152602260248201527f45434453413a20696e76616c6964207369676e6174757265202776272076616c604482015261756560f01b6064820152608401610693565b600061223b611ebb565b905080612247846123ca565b1015611273578254600180820185556000858152602080822090930193909355938401805494850181558252902090910155565b6001600160a01b0382166122db5760405162461bcd60e51b815260206004820152602160248201527f45524332303a206275726e2066726f6d20746865207a65726f206164647265736044820152607360f81b6064820152608401610693565b6122e782600083611cf5565b6001600160a01b0382166000908152602081905260409020548181101561235b5760405162461bcd60e51b815260206004820152602260248201527f45524332303a206275726e20616d6f756e7420657863656564732062616c616e604482015261636560f01b6064820152608401610693565b6001600160a01b038316600090815260208190526040812083830390556002805484929061238a9084906127e9565b90915550506040518281526000906001600160a01b0385169060008051602061288e8339815191529060200160405180910390a361127383600084611d00565b80546000906123db57506000919050565b815482906123eb906001906127e9565b815481106123fb576123fb612861565b90600052602060002001549050919050565b919050565b80356001600160a01b038116811461240d57600080fd5b803560ff8116811461240d57600080fd5b60006020828403121561244c57600080fd5b6106be82612412565b6000806040838503121561246857600080fd5b61247183612412565b915061247f60208401612412565b90509250929050565b60008060006060848603121561249d57600080fd5b6124a684612412565b92506124b460208501612412565b9150604084013590509250925092565b600080600080600080600060e0888a0312156124df57600080fd5b6124e888612412565b96506124f660208901612412565b9550604088013594506060880135935061251260808901612429565b925060a0880135915060c0880135905092959891949750929550565b6000806040838503121561254157600080fd5b61254a83612412565b946020939093013593505050565b60008060006060848603121561256d57600080fd5b61257684612412565b925060208401359150604084013567ffffffffffffffff8082111561259a57600080fd5b818601915086601f8301126125ae57600080fd5b8135818111156125c0576125c0612877565b604051601f8201601f19908116603f011681019083821181831017156125e8576125e8612877565b8160405282815289602084870101111561260157600080fd5b8260208601602083013760006020848301015280955050505050509250925092565b60008060008060008060c0878903121561263c57600080fd5b61264587612412565b9550602087013594506040870135935061266160608801612429565b92506080870135915060a087013590509295509295509295565b6000806040838503121561268e57600080fd5b61269783612412565b9150602083013563ffffffff811681146126b057600080fd5b809150509250929050565b6000602082840312156126cd57600080fd5b5035919050565b6000815180845260005b818110156126fa576020818501810151868301820152016126de565b8181111561270c576000602083870101525b50601f01601f19169290920160200192915050565b60018060a01b03841681528260208201526060604082015260006109c260608301846126d4565b6020815260006106be60208301846126d4565b6020808252818101527f4f776e61626c653a2063616c6c6572206973206e6f7420746865206f776e6572604082015260600190565b600082198211156127a3576127a3612835565b500190565b6000826127c557634e487b7160e01b600052601260045260246000fd5b500490565b60008160001904831182151516156127e4576127e4612835565b500290565b6000828210156127fb576127fb612835565b500390565b600181811c9082168061281457607f821691505b60208210811415611b7657634e487b7160e01b600052602260045260246000fd5b634e487b7160e01b600052601160045260246000fd5b634e487b7160e01b600052602160045260246000fd5b634e487b7160e01b600052603260045260246000fd5b634e487b7160e01b600052604160045260246000fdfeddf252ad1be2c89b69c2b068fc378daa952ba7f163c4a11628f55a4df523b3efa264697066735822122092d904d61fff317f9ec10d569727a53e2e3c0929e33b66c9a9cbcb9b0b8032eb64736f6c63430008070033dec2bacdd2f05b59de34da9b523dff8be42e5e38e818c82fdb0bae774387a724",
  "devdoc": {
    "kind": "dev",
    "methods": {
      "DOMAIN_SEPARATOR()": {
        "details": "See {IERC20Permit-DOMAIN_SEPARATOR}."
      },
      "allowance(address,address)": {
        "details": "See {IERC20-allowance}."
      },
      "approve(address,uint256)": {
        "details": "See {IERC20-approve}. NOTE: If `amount` is the maximum `uint256`, the allowance is not updated on `transferFrom`. This is semantically equivalent to an infinite approval. Requirements: - `spender` cannot be the zero address."
      },
      "balanceOf(address)": {
        "details": "See {IERC20-balanceOf}."
      },
      "balanceOfAt(address,uint256)": {
        "details": "Retrieves the balance of `account` at the time `snapshotId` was created."
      },
      "burn(uint256)": {
        "details": "Destroys `amount` tokens from the caller. See {ERC20-_burn}."
      },
      "burnFrom(address,uint256)": {
        "details": "Destroys `amount` tokens from `account`, deducting from the caller's allowance. See {ERC20-_burn} and {ERC20-allowance}. Requirements: - the caller must have allowance for ``accounts``'s tokens of at least `amount`."
      },
      "checkpoints(address,uint32)": {
        "details": "Get the `pos`-th checkpoint for `account`."
      },
      "decimals()": {
        "details": "Returns the number of decimals used to get its user representation. For example, if `decimals` equals `2`, a balance of `505` tokens should be displayed to a user as `5.05` (`505 / 10 ** 2`). Tokens usually opt for a value of 18, imitating the relationship between Ether and Wei. This is the value {ERC20} uses, unless this function is overridden; NOTE: This information is only used for _display_ purposes: it in no way affects any of the arithmetic of the contract, including {IERC20-balanceOf} and {IERC20-transfer}."
      },
      "decreaseAllowance(address,uint256)": {
        "details": "Atomically decreases the allowance granted to `spender` by the caller. This is an alternative to {approve} that can be used as a mitigation for problems described in {IERC20-approve}. Emits an {Approval} event indicating the updated allowance. Requirements: - `spender` cannot be the zero address. - `spender` must have allowance for the caller of at least `subtractedValue`."
      },
      "delegate(address)": {
        "details": "Delegate votes from the sender to `delegatee`."
      },
      "delegateBySig(address,uint256,uint256,uint8,bytes32,bytes32)": {
        "details": "Delegates votes from signer to `delegatee`"
      },
      "delegates(address)": {
        "details": "Get the address `account` is currently delegating to."
      },
      "getPastTotalSupply(uint256)": {
        "details": "Retrieve the `totalSupply` at the end of `blockNumber`. Note, this value is the sum of all balances. It is but NOT the sum of all the delegated votes! Requirements: - `blockNumber` must have been already mined"
      },
      "getPastVotes(address,uint256)": {
        "details": "Retrieve the number of votes for `account` at the end of `blockNumber`. Requirements: - `blockNumber` must have been already mined"
      },
      "getVotes(address)": {
        "details": "Gets the current votes balance for `account`"
      },
      "increaseAllowance(address,uint256)": {
        "details": "Atomically increases the allowance granted to `spender` by the caller. This is an alternative to {approve} that can be used as a mitigation for problems described in {IERC20-approve}. Emits an {Approval} event indicating the updated allowance. Requirements: - `spender` cannot be the zero address."
      },
      "mint(address,uint256)": {
        "details": "Mints new tokens. Can only be executed every `minimumMintInterval` by a governance proposal. It cannot exceed 1% of the current total supply.",
        "params": {
          "amount": "The quantity of tokens to mint.",
          "to": "The address to mint the new tokens to."
        }
      },
      "name()": {
        "details": "Returns the name of the token."
      },
      "nonces(address)": {
        "details": "See {IERC20Permit-nonces}."
      },
      "numCheckpoints(address)": {
        "details": "Get number of checkpoints for `account`."
      },
      "owner()": {
        "details": "Returns the address of the current owner."
      },
      "permit(address,address,uint256,uint256,uint8,bytes32,bytes32)": {
        "details": "See {IERC20Permit-permit}."
      },
      "renounceOwnership()": {
        "details": "Leaves the contract without owner. It will not be possible to call `onlyOwner` functions anymore. Can only be called by the current owner. NOTE: Renouncing ownership will leave the contract without an owner, thereby removing any functionality that is only available to the owner."
      },
      "symbol()": {
        "details": "Returns the symbol of the token, usually a shorter version of the name."
      },
      "totalSupply()": {
        "details": "See {IERC20-totalSupply}."
      },
      "totalSupplyAt(uint256)": {
        "details": "Retrieves the total supply at the time `snapshotId` was created."
      },
      "transfer(address,uint256)": {
        "details": "See {IERC20-transfer}. Requirements: - `to` cannot be the zero address. - the caller must have a balance of at least `amount`."
      },
      "transferAndCall(address,uint256,bytes)": {
        "details": "ERC677 transfer token to a contract address with additional data if the recipient is a contract.",
        "params": {
          "_data": "The extra data to be passed to the receiving contract.",
          "_to": "The address to transfer to.",
          "_value": "The amount to be transferred."
        }
      },
      "transferFrom(address,address,uint256)": {
        "details": "See {IERC20-transferFrom}. Emits an {Approval} event indicating the updated allowance. This is not required by the EIP. See the note at the beginning of {ERC20}. NOTE: Does not update the allowance if the current allowance is the maximum `uint256`. Requirements: - `from` and `to` cannot be the zero address. - `from` must have a balance of at least `amount`. - the caller must have allowance for ``from``'s tokens of at least `amount`."
      },
      "transferOwnership(address)": {
        "details": "Transfers ownership of the contract to a new account (`newOwner`). Can only be called by the current owner."
      }
    },
    "version": 1
  },
  "userdoc": {
    "kind": "user",
    "methods": {},
    "version": 1
  },
  "storageLayout": {
    "storage": [
      {
        "astId": 3757,
        "contract": "contracts/BTCLPToken.sol:BTCLPToken",
        "label": "_balances",
        "offset": 0,
        "slot": "0",
        "type": "t_mapping(t_address,t_uint256)"
      },
      {
        "astId": 3763,
        "contract": "contracts/BTCLPToken.sol:BTCLPToken",
        "label": "_allowances",
        "offset": 0,
        "slot": "1",
        "type": "t_mapping(t_address,t_mapping(t_address,t_uint256))"
      },
      {
        "astId": 3765,
        "contract": "contracts/BTCLPToken.sol:BTCLPToken",
        "label": "_totalSupply",
        "offset": 0,
        "slot": "2",
        "type": "t_uint256"
      },
      {
        "astId": 3767,
        "contract": "contracts/BTCLPToken.sol:BTCLPToken",
        "label": "_name",
        "offset": 0,
        "slot": "3",
        "type": "t_string_storage"
      },
      {
        "astId": 3769,
        "contract": "contracts/BTCLPToken.sol:BTCLPToken",
        "label": "_symbol",
        "offset": 0,
        "slot": "4",
        "type": "t_string_storage"
      },
      {
        "astId": 4479,
        "contract": "contracts/BTCLPToken.sol:BTCLPToken",
        "label": "_accountBalanceSnapshots",
        "offset": 0,
        "slot": "5",
        "type": "t_mapping(t_address,t_struct(Snapshots)4474_storage)"
      },
      {
        "astId": 4482,
        "contract": "contracts/BTCLPToken.sol:BTCLPToken",
        "label": "_totalSupplySnapshots",
        "offset": 0,
        "slot": "6",
        "type": "t_struct(Snapshots)4474_storage"
      },
      {
        "astId": 4485,
        "contract": "contracts/BTCLPToken.sol:BTCLPToken",
        "label": "_currentSnapshotId",
        "offset": 0,
        "slot": "8",
        "type": "t_struct(Counter)6278_storage"
      },
      {
        "astId": 689,
        "contract": "contracts/BTCLPToken.sol:BTCLPToken",
        "label": "_owner",
        "offset": 0,
        "slot": "9",
        "type": "t_address"
      },
      {
        "astId": 5464,
        "contract": "contracts/BTCLPToken.sol:BTCLPToken",
        "label": "_nonces",
        "offset": 0,
        "slot": "10",
        "type": "t_mapping(t_address,t_struct(Counter)6278_storage)"
      },
      {
        "astId": 4805,
        "contract": "contracts/BTCLPToken.sol:BTCLPToken",
        "label": "_delegates",
        "offset": 0,
        "slot": "11",
        "type": "t_mapping(t_address,t_address)"
      },
      {
        "astId": 4811,
        "contract": "contracts/BTCLPToken.sol:BTCLPToken",
        "label": "_checkpoints",
        "offset": 0,
        "slot": "12",
        "type": "t_mapping(t_address,t_array(t_struct(Checkpoint)4796_storage)dyn_storage)"
      },
      {
        "astId": 4815,
        "contract": "contracts/BTCLPToken.sol:BTCLPToken",
        "label": "_totalSupplyCheckpoints",
        "offset": 0,
        "slot": "13",
        "type": "t_array(t_struct(Checkpoint)4796_storage)dyn_storage"
      },
      {
        "astId": 11682,
        "contract": "contracts/BTCLPToken.sol:BTCLPToken",
        "label": "nextMint",
        "offset": 0,
        "slot": "14",
        "type": "t_uint256"
      }
    ],
    "types": {
      "t_address": {
        "encoding": "inplace",
        "label": "address",
        "numberOfBytes": "20"
      },
      "t_array(t_struct(Checkpoint)4796_storage)dyn_storage": {
        "base": "t_struct(Checkpoint)4796_storage",
        "encoding": "dynamic_array",
        "label": "struct ERC20Votes.Checkpoint[]",
        "numberOfBytes": "32"
      },
      "t_array(t_uint256)dyn_storage": {
        "base": "t_uint256",
        "encoding": "dynamic_array",
        "label": "uint256[]",
        "numberOfBytes": "32"
      },
      "t_mapping(t_address,t_address)": {
        "encoding": "mapping",
        "key": "t_address",
        "label": "mapping(address => address)",
        "numberOfBytes": "32",
        "value": "t_address"
      },
      "t_mapping(t_address,t_array(t_struct(Checkpoint)4796_storage)dyn_storage)": {
        "encoding": "mapping",
        "key": "t_address",
        "label": "mapping(address => struct ERC20Votes.Checkpoint[])",
        "numberOfBytes": "32",
        "value": "t_array(t_struct(Checkpoint)4796_storage)dyn_storage"
      },
      "t_mapping(t_address,t_mapping(t_address,t_uint256))": {
        "encoding": "mapping",
        "key": "t_address",
        "label": "mapping(address => mapping(address => uint256))",
        "numberOfBytes": "32",
        "value": "t_mapping(t_address,t_uint256)"
      },
      "t_mapping(t_address,t_struct(Counter)6278_storage)": {
        "encoding": "mapping",
        "key": "t_address",
        "label": "mapping(address => struct Counters.Counter)",
        "numberOfBytes": "32",
        "value": "t_struct(Counter)6278_storage"
      },
      "t_mapping(t_address,t_struct(Snapshots)4474_storage)": {
        "encoding": "mapping",
        "key": "t_address",
        "label": "mapping(address => struct ERC20Snapshot.Snapshots)",
        "numberOfBytes": "32",
        "value": "t_struct(Snapshots)4474_storage"
      },
      "t_mapping(t_address,t_uint256)": {
        "encoding": "mapping",
        "key": "t_address",
        "label": "mapping(address => uint256)",
        "numberOfBytes": "32",
        "value": "t_uint256"
      },
      "t_string_storage": {
        "encoding": "bytes",
        "label": "string",
        "numberOfBytes": "32"
      },
      "t_struct(Checkpoint)4796_storage": {
        "encoding": "inplace",
        "label": "struct ERC20Votes.Checkpoint",
        "members": [
          {
            "astId": 4793,
            "contract": "contracts/BTCLPToken.sol:BTCLPToken",
            "label": "fromBlock",
            "offset": 0,
            "slot": "0",
            "type": "t_uint32"
          },
          {
            "astId": 4795,
            "contract": "contracts/BTCLPToken.sol:BTCLPToken",
            "label": "votes",
            "offset": 4,
            "slot": "0",
            "type": "t_uint224"
          }
        ],
        "numberOfBytes": "32"
      },
      "t_struct(Counter)6278_storage": {
        "encoding": "inplace",
        "label": "struct Counters.Counter",
        "members": [
          {
            "astId": 6277,
            "contract": "contracts/BTCLPToken.sol:BTCLPToken",
            "label": "_value",
            "offset": 0,
            "slot": "0",
            "type": "t_uint256"
          }
        ],
        "numberOfBytes": "32"
      },
      "t_struct(Snapshots)4474_storage": {
        "encoding": "inplace",
        "label": "struct ERC20Snapshot.Snapshots",
        "members": [
          {
            "astId": 4470,
            "contract": "contracts/BTCLPToken.sol:BTCLPToken",
            "label": "ids",
            "offset": 0,
            "slot": "0",
            "type": "t_array(t_uint256)dyn_storage"
          },
          {
            "astId": 4473,
            "contract": "contracts/BTCLPToken.sol:BTCLPToken",
            "label": "values",
            "offset": 0,
            "slot": "1",
            "type": "t_array(t_uint256)dyn_storage"
          }
        ],
        "numberOfBytes": "64"
      },
      "t_uint224": {
        "encoding": "inplace",
        "label": "uint224",
        "numberOfBytes": "28"
      },
      "t_uint256": {
        "encoding": "inplace",
        "label": "uint256",
        "numberOfBytes": "32"
      },
      "t_uint32": {
        "encoding": "inplace",
        "label": "uint32",
        "numberOfBytes": "4"
      }
    }
  }
}