{
  "address": "0x580D232675F9010c3C2eA39871346780EE618dAd",
  "abi": [
    {
      "inputs": [],
      "stateMutability": "nonpayable",
      "type": "constructor"
    },
    {
      "anonymous": false,
      "inputs": [
        {
          "indexed": true,
          "internalType": "address",
          "name": "previousOwner",
          "type": "address"
        },
        {
          "indexed": true,
          "internalType": "address",
          "name": "newOwner",
          "type": "address"
        }
      ],
      "name": "OwnershipTransferred",
      "type": "event"
    },
    {
      "anonymous": false,
      "inputs": [
        {
          "indexed": true,
          "internalType": "address",
          "name": "from",
          "type": "address"
        },
        {
          "indexed": true,
          "internalType": "address",
          "name": "to",
          "type": "address"
        },
        {
          "indexed": false,
          "internalType": "uint256",
          "name": "value",
          "type": "uint256"
        }
      ],
      "name": "Transfer",
      "type": "event"
    },
    {
      "inputs": [
        {
          "internalType": "address",
          "name": "account",
          "type": "address"
        }
      ],
      "name": "balanceOf",
      "outputs": [
        {
          "internalType": "uint256",
          "name": "",
          "type": "uint256"
        }
      ],
      "stateMutability": "view",
      "type": "function"
    },
    {
      "inputs": [
        {
          "internalType": "uint256",
          "name": "amount",
          "type": "uint256"
        }
      ],
      "name": "burn",
      "outputs": [],
      "stateMutability": "nonpayable",
      "type": "function"
    },
    {
      "inputs": [],
      "name": "decimals",
      "outputs": [
        {
          "internalType": "uint8",
          "name": "",
          "type": "uint8"
        }
      ],
      "stateMutability": "view",
      "type": "function"
    },
    {
      "inputs": [
        {
          "internalType": "address",
          "name": "",
          "type": "address"
        }
      ],
      "name": "igoAndNoLossLotteries",
      "outputs": [
        {
          "internalType": "bool",
          "name": "",
          "type": "bool"
        }
      ],
      "stateMutability": "view",
      "type": "function"
    },
    {
      "inputs": [
        {
          "internalType": "address",
          "name": "to",
          "type": "address"
        },
        {
          "internalType": "uint256",
          "name": "amount",
          "type": "uint256"
        }
      ],
      "name": "mint",
      "outputs": [],
      "stateMutability": "nonpayable",
      "type": "function"
    },
    {
      "inputs": [],
      "name": "name",
      "outputs": [
        {
          "internalType": "string",
          "name": "",
          "type": "string"
        }
      ],
      "stateMutability": "view",
      "type": "function"
    },
    {
      "inputs": [],
      "name": "owner",
      "outputs": [
        {
          "internalType": "address",
          "name": "",
          "type": "address"
        }
      ],
      "stateMutability": "view",
      "type": "function"
    },
    {
      "inputs": [],
      "name": "renounceOwnership",
      "outputs": [],
      "stateMutability": "nonpayable",
      "type": "function"
    },
    {
      "inputs": [
        {
          "internalType": "address",
          "name": "nllAddress",
          "type": "address"
        },
        {
          "internalType": "bool",
          "name": "status",
          "type": "bool"
        }
      ],
      "name": "setNoLossLotteries",
      "outputs": [],
      "stateMutability": "nonpayable",
      "type": "function"
    },
    {
      "inputs": [],
      "name": "symbol",
      "outputs": [
        {
          "internalType": "string",
          "name": "",
          "type": "string"
        }
      ],
      "stateMutability": "view",
      "type": "function"
    },
    {
      "inputs": [],
      "name": "totalSupply",
      "outputs": [
        {
          "internalType": "uint256",
          "name": "",
          "type": "uint256"
        }
      ],
      "stateMutability": "view",
      "type": "function"
    },
    {
      "inputs": [
        {
          "internalType": "address",
          "name": "to",
          "type": "address"
        },
        {
          "internalType": "uint256",
          "name": "amount",
          "type": "uint256"
        }
      ],
      "name": "transfer",
      "outputs": [],
      "stateMutability": "nonpayable",
      "type": "function"
    },
    {
      "inputs": [
        {
          "internalType": "address",
          "name": "_to",
          "type": "address"
        },
        {
          "internalType": "uint256",
          "name": "_value",
          "type": "uint256"
        },
        {
          "internalType": "bytes",
          "name": "_data",
          "type": "bytes"
        }
      ],
      "name": "transferAndCall",
      "outputs": [
        {
          "internalType": "bool",
          "name": "success",
          "type": "bool"
        }
      ],
      "stateMutability": "nonpayable",
      "type": "function"
    },
    {
      "inputs": [
        {
          "internalType": "address",
          "name": "newOwner",
          "type": "address"
        }
      ],
      "name": "transferOwnership",
      "outputs": [],
      "stateMutability": "nonpayable",
      "type": "function"
    }
  ],
  "transactionHash": "0x21f6da6cafa4178a195eb3c58aa9242a3d778ed96b001051ba1e14720fca36ff",
  "args": [],
  "numDeployments": 1,
  "solcInputHash": "c673e363a950d162cc4e095a7d22b92a",
  "bytecode": "0x608060405269d3c21bcecceda10000006006553480156200001f57600080fd5b5060405180604001604052806009815260200168272626102a37b5b2b760b91b8152506040518060400160405280600381526020016213931360ea1b8152506200007862000072620000ac60201b60201c565b620000b0565b81516200008d90600390602085019062000100565b508051620000a390600490602084019062000100565b505050620001e3565b3390565b600080546001600160a01b038381166001600160a01b0319831681178455604051919092169283917f8be0079c531659141344cd1fd0a4f28419497f9722a3daafe3b4186f6b6457e09190a35050565b8280546200010e90620001a6565b90600052602060002090601f0160209004810192826200013257600085556200017d565b82601f106200014d57805160ff19168380011785556200017d565b828001600101855582156200017d579182015b828111156200017d57825182559160200191906001019062000160565b506200018b9291506200018f565b5090565b5b808211156200018b576000815560010162000190565b600181811c90821680620001bb57607f821691505b60208210811415620001dd57634e487b7160e01b600052602260045260246000fd5b50919050565b610eb280620001f36000396000f3fe608060405234801561001057600080fd5b50600436106100ea5760003560e01c8063715018a61161008c578063945fb71711610066578063945fb717146101e857806395d89b41146101fb578063a9059cbb14610203578063f2fde38b1461021657600080fd5b8063715018a6146101a25780638da5cb5b146101aa5780639304a0ab146101c557600080fd5b80634000aea0116100c85780634000aea01461012e57806340c10f191461015157806342966c681461016657806370a082311461017957600080fd5b806306fdde03146100ef57806318160ddd1461010d578063313ce5671461011f575b600080fd5b6100f7610229565b6040516101049190610d7e565b60405180910390f35b6002545b604051908152602001610104565b60405160128152602001610104565b61014161013c366004610c1d565b6102bb565b6040519015158152602001610104565b61016461015f366004610bf3565b6104f7565b005b610164610174366004610ce8565b61058e565b610111610187366004610b95565b6001600160a01b031660009081526001602052604090205490565b61016461059b565b6000546040516001600160a01b039091168152602001610104565b6101416101d3366004610b95565b60056020526000908152604090205460ff1681565b6101646101f6366004610bb7565b6105d1565b6100f7610626565b610164610211366004610bf3565b610635565b610164610224366004610b95565b610661565b60606003805461023890610df5565b80601f016020809104026020016040519081016040528092919081815260200182805461026490610df5565b80156102b15780601f10610286576101008083540402835291602001916102b1565b820191906000526020600020905b81548152906001019060200180831161029457829003601f168201915b5050505050905090565b60003361032a5760405162461bcd60e51b815260206004820152603260248201527f4552433637373a2063616e2774207265636569766520746f6b656e732066726f6044820152716d20746865207a65726f206164647265737360701b60648201526084015b60405180910390fd5b6001600160a01b03841661038b5760405162461bcd60e51b815260206004820152602260248201527f4552433637373a2063616e27742073656e6420746f207a65726f206164647265604482015261737360f01b6064820152608401610321565b6001600160a01b0384163014156103fb5760405162461bcd60e51b815260206004820152602e60248201527f4552433637373a2063616e27742073656e6420746f6b656e7320746f2074686560448201526d20746f6b656e206164647265737360901b6064820152608401610321565b6001600160a01b03841660009081526005602052604090205460ff1615156001146104a25760405162461bcd60e51b815260206004820152604b60248201527f5472616e736665727320617265206f6e6c7920616c6c6f77656420696e20746860448201527f65204461696c792c205765656b6c792c204d6f6e74686c79204e6f204c6f737360648201526a102637ba3a32b934b2b99760a91b608482015260a401610321565b6104ad3385856106f9565b6040518381526001600160a01b038516903390600080516020610e5d8339815191529060200160405180910390a3833b156104ed576104ed8484846108b6565b5060019392505050565b6000546001600160a01b031633146105215760405162461bcd60e51b815260040161032190610d91565b6002546006546105319190610dde565b8111156105805760405162461bcd60e51b815260206004820181905260248201527f4e4c4c3a204d696e742065786365656473206d6178696d756d20616d6f756e746044820152606401610321565b61058a8282610920565b5050565b61059833826109ed565b50565b6000546001600160a01b031633146105c55760405162461bcd60e51b815260040161032190610d91565b6105cf6000610b29565b565b6000546001600160a01b031633146105fb5760405162461bcd60e51b815260040161032190610d91565b6001600160a01b03919091166000908152600560205260409020805460ff1916911515919091179055565b60606004805461023890610df5565b3360009081526005602052604090205460ff16151560011461065657600080fd5b61058a3383836106f9565b6000546001600160a01b0316331461068b5760405162461bcd60e51b815260040161032190610d91565b6001600160a01b0381166106f05760405162461bcd60e51b815260206004820152602660248201527f4f776e61626c653a206e6577206f776e657220697320746865207a65726f206160448201526564647265737360d01b6064820152608401610321565b61059881610b29565b6001600160a01b03831661075d5760405162461bcd60e51b815260206004820152602560248201527f45524332303a207472616e736665722066726f6d20746865207a65726f206164604482015264647265737360d81b6064820152608401610321565b6001600160a01b0382166107bf5760405162461bcd60e51b815260206004820152602360248201527f45524332303a207472616e7366657220746f20746865207a65726f206164647260448201526265737360e81b6064820152608401610321565b6001600160a01b038316600090815260016020526040902054818110156108375760405162461bcd60e51b815260206004820152602660248201527f45524332303a207472616e7366657220616d6f756e7420657863656564732062604482015265616c616e636560d01b6064820152608401610321565b6001600160a01b0380851660009081526001602052604080822085850390559185168152908120805484929061086e908490610dc6565b92505081905550826001600160a01b0316846001600160a01b0316600080516020610e5d833981519152846040516108a891815260200190565b60405180910390a350505050565b604051635260769b60e11b815283906001600160a01b0382169063a4c0ed36906108e890339087908790600401610d4e565b600060405180830381600087803b15801561090257600080fd5b505af1158015610916573d6000803e3d6000fd5b5050505050505050565b6001600160a01b0382166109765760405162461bcd60e51b815260206004820152601f60248201527f45524332303a206d696e7420746f20746865207a65726f2061646472657373006044820152606401610321565b80600260008282546109889190610dc6565b90915550506001600160a01b038216600090815260016020526040812080548392906109b5908490610dc6565b90915550506040518181526001600160a01b03831690600090600080516020610e5d8339815191529060200160405180910390a35050565b6001600160a01b038216610a4d5760405162461bcd60e51b815260206004820152602160248201527f45524332303a206275726e2066726f6d20746865207a65726f206164647265736044820152607360f81b6064820152608401610321565b6001600160a01b03821660009081526001602052604090205481811015610ac15760405162461bcd60e51b815260206004820152602260248201527f45524332303a206275726e20616d6f756e7420657863656564732062616c616e604482015261636560f01b6064820152608401610321565b6001600160a01b0383166000908152600160205260408120838303905560028054849290610af0908490610dde565b90915550506040518281526000906001600160a01b03851690600080516020610e5d8339815191529060200160405180910390a3505050565b600080546001600160a01b038381166001600160a01b0319831681178455604051919092169283917f8be0079c531659141344cd1fd0a4f28419497f9722a3daafe3b4186f6b6457e09190a35050565b80356001600160a01b0381168114610b9057600080fd5b919050565b600060208284031215610ba757600080fd5b610bb082610b79565b9392505050565b60008060408385031215610bca57600080fd5b610bd383610b79565b915060208301358015158114610be857600080fd5b809150509250929050565b60008060408385031215610c0657600080fd5b610c0f83610b79565b946020939093013593505050565b600080600060608486031215610c3257600080fd5b610c3b84610b79565b925060208401359150604084013567ffffffffffffffff80821115610c5f57600080fd5b818601915086601f830112610c7357600080fd5b813581811115610c8557610c85610e46565b604051601f8201601f19908116603f01168101908382118183101715610cad57610cad610e46565b81604052828152896020848701011115610cc657600080fd5b8260208601602083013760006020848301015280955050505050509250925092565b600060208284031215610cfa57600080fd5b5035919050565b6000815180845260005b81811015610d2757602081850181015186830182015201610d0b565b81811115610d39576000602083870101525b50601f01601f19169290920160200192915050565b60018060a01b0384168152826020820152606060408201526000610d756060830184610d01565b95945050505050565b602081526000610bb06020830184610d01565b6020808252818101527f4f776e61626c653a2063616c6c6572206973206e6f7420746865206f776e6572604082015260600190565b60008219821115610dd957610dd9610e30565b500190565b600082821015610df057610df0610e30565b500390565b600181811c90821680610e0957607f821691505b60208210811415610e2a57634e487b7160e01b600052602260045260246000fd5b50919050565b634e487b7160e01b600052601160045260246000fd5b634e487b7160e01b600052604160045260246000fdfeddf252ad1be2c89b69c2b068fc378daa952ba7f163c4a11628f55a4df523b3efa26469706673582212200f0930b0189abe67b1bf267e8092f1e987a3cc53d69d58d04f62964c7f79d70a64736f6c63430008070033",
  "devdoc": {
    "kind": "dev",
    "methods": {
      "balanceOf(address)": {
        "details": "See {IERC20-balanceOf}."
      },
      "decimals()": {
        "details": "Returns the number of decimals used to get its user representation. For example, if `decimals` equals `2`, a balance of `505` tokens should be displayed to a user as `5.05` (`505 / 10 ** 2`). Tokens usually opt for a value of 18, imitating the relationship between Ether and Wei. This is the value {ERC20} uses, unless this function is overridden;"
      },
      "name()": {
        "details": "Returns the name of the token."
      },
      "owner()": {
        "details": "Returns the address of the current owner."
      },
      "renounceOwnership()": {
        "details": "Leaves the contract without owner. It will not be possible to call `onlyOwner` functions anymore. Can only be called by the current owner. NOTE: Renouncing ownership will leave the contract without an owner, thereby removing any functionality that is only available to the owner."
      },
      "symbol()": {
        "details": "Returns the symbol of the token, usually a shorter version of the name."
      },
      "totalSupply()": {
        "details": "See {IERC20-totalSupply}."
      },
      "transferAndCall(address,uint256,bytes)": {
        "details": "ERC677 transfer token to a contract address with additional data if the recipient is a contract.",
        "params": {
          "_data": "The extra data to be passed to the receiving contract.",
          "_to": "The address to transfer to.",
          "_value": "The amount to be transferred."
        }
      },
      "transferOwnership(address)": {
        "details": "Transfers ownership of the contract to a new account (`newOwner`). Can only be called by the current owner."
      }
    },
    "version": 1
  },
  "userdoc": {
    "kind": "user",
    "methods": {},
    "version": 1
  },
  "storageLayout": {
    "storage": [
      {
        "astId": 12475,
        "contract": "contracts/NLLToken.sol:NLLToken",
        "label": "_owner",
        "offset": 0,
        "slot": "0",
        "type": "t_address"
      },
      {
        "astId": 12587,
        "contract": "contracts/NLLToken.sol:NLLToken",
        "label": "_balances",
        "offset": 0,
        "slot": "1",
        "type": "t_mapping(t_address,t_uint256)"
      },
      {
        "astId": 12589,
        "contract": "contracts/NLLToken.sol:NLLToken",
        "label": "_totalSupply",
        "offset": 0,
        "slot": "2",
        "type": "t_uint256"
      },
      {
        "astId": 12591,
        "contract": "contracts/NLLToken.sol:NLLToken",
        "label": "_name",
        "offset": 0,
        "slot": "3",
        "type": "t_string_storage"
      },
      {
        "astId": 12593,
        "contract": "contracts/NLLToken.sol:NLLToken",
        "label": "_symbol",
        "offset": 0,
        "slot": "4",
        "type": "t_string_storage"
      },
      {
        "astId": 11971,
        "contract": "contracts/NLLToken.sol:NLLToken",
        "label": "igoAndNoLossLotteries",
        "offset": 0,
        "slot": "5",
        "type": "t_mapping(t_address,t_bool)"
      },
      {
        "astId": 11976,
        "contract": "contracts/NLLToken.sol:NLLToken",
        "label": "maxSupply",
        "offset": 0,
        "slot": "6",
        "type": "t_uint256"
      }
    ],
    "types": {
      "t_address": {
        "encoding": "inplace",
        "label": "address",
        "numberOfBytes": "20"
      },
      "t_bool": {
        "encoding": "inplace",
        "label": "bool",
        "numberOfBytes": "1"
      },
      "t_mapping(t_address,t_bool)": {
        "encoding": "mapping",
        "key": "t_address",
        "label": "mapping(address => bool)",
        "numberOfBytes": "32",
        "value": "t_bool"
      },
      "t_mapping(t_address,t_uint256)": {
        "encoding": "mapping",
        "key": "t_address",
        "label": "mapping(address => uint256)",
        "numberOfBytes": "32",
        "value": "t_uint256"
      },
      "t_string_storage": {
        "encoding": "bytes",
        "label": "string",
        "numberOfBytes": "32"
      },
      "t_uint256": {
        "encoding": "inplace",
        "label": "uint256",
        "numberOfBytes": "32"
      }
    }
  }
}