{
  "address": "0x83Ed7c0EB91e0cfCc493Fec9a0D683FAb19b07D7",
  "abi": [
    {
      "inputs": [
        {
          "internalType": "contract ERC20",
          "name": "_token",
          "type": "address"
        },
        {
          "internalType": "uint256",
          "name": "_unlockBegin",
          "type": "uint256"
        },
        {
          "internalType": "uint256",
          "name": "_unlockCliff",
          "type": "uint256"
        },
        {
          "internalType": "uint256",
          "name": "_unlockEnd",
          "type": "uint256"
        }
      ],
      "stateMutability": "nonpayable",
      "type": "constructor"
    },
    {
      "anonymous": false,
      "inputs": [
        {
          "indexed": true,
          "internalType": "address",
          "name": "owner",
          "type": "address"
        },
        {
          "indexed": true,
          "internalType": "address",
          "name": "recipient",
          "type": "address"
        },
        {
          "indexed": false,
          "internalType": "uint256",
          "name": "amount",
          "type": "uint256"
        }
      ],
      "name": "Claimed",
      "type": "event"
    },
    {
      "anonymous": false,
      "inputs": [
        {
          "indexed": true,
          "internalType": "address",
          "name": "sender",
          "type": "address"
        },
        {
          "indexed": true,
          "internalType": "address",
          "name": "recipient",
          "type": "address"
        },
        {
          "indexed": false,
          "internalType": "uint256",
          "name": "amount",
          "type": "uint256"
        }
      ],
      "name": "Locked",
      "type": "event"
    },
    {
      "inputs": [
        {
          "internalType": "address",
          "name": "recipient",
          "type": "address"
        },
        {
          "internalType": "uint256",
          "name": "amount",
          "type": "uint256"
        }
      ],
      "name": "claim",
      "outputs": [],
      "stateMutability": "nonpayable",
      "type": "function"
    },
    {
      "inputs": [
        {
          "internalType": "address",
          "name": "owner",
          "type": "address"
        }
      ],
      "name": "claimableBalance",
      "outputs": [
        {
          "internalType": "uint256",
          "name": "",
          "type": "uint256"
        }
      ],
      "stateMutability": "view",
      "type": "function"
    },
    {
      "inputs": [
        {
          "internalType": "address",
          "name": "",
          "type": "address"
        }
      ],
      "name": "claimedAmounts",
      "outputs": [
        {
          "internalType": "uint256",
          "name": "",
          "type": "uint256"
        }
      ],
      "stateMutability": "view",
      "type": "function"
    },
    {
      "inputs": [
        {
          "internalType": "address",
          "name": "recipient",
          "type": "address"
        },
        {
          "internalType": "uint256",
          "name": "amount",
          "type": "uint256"
        }
      ],
      "name": "lock",
      "outputs": [],
      "stateMutability": "nonpayable",
      "type": "function"
    },
    {
      "inputs": [
        {
          "internalType": "address",
          "name": "",
          "type": "address"
        }
      ],
      "name": "lockedAmounts",
      "outputs": [
        {
          "internalType": "uint256",
          "name": "",
          "type": "uint256"
        }
      ],
      "stateMutability": "view",
      "type": "function"
    },
    {
      "inputs": [],
      "name": "token",
      "outputs": [
        {
          "internalType": "contract ERC20",
          "name": "",
          "type": "address"
        }
      ],
      "stateMutability": "view",
      "type": "function"
    },
    {
      "inputs": [],
      "name": "unlockBegin",
      "outputs": [
        {
          "internalType": "uint256",
          "name": "",
          "type": "uint256"
        }
      ],
      "stateMutability": "view",
      "type": "function"
    },
    {
      "inputs": [],
      "name": "unlockCliff",
      "outputs": [
        {
          "internalType": "uint256",
          "name": "",
          "type": "uint256"
        }
      ],
      "stateMutability": "view",
      "type": "function"
    },
    {
      "inputs": [],
      "name": "unlockEnd",
      "outputs": [
        {
          "internalType": "uint256",
          "name": "",
          "type": "uint256"
        }
      ],
      "stateMutability": "view",
      "type": "function"
    }
  ],
  "transactionHash": "0x6642e43dba2d5b6a49350ca623c52e9c9900d4cadf1be473f6c153694406bf59",
  "args": [
    "0x73172A592733dA83C58884f968805f58c48461E8",
    1654819200,
    1657411200,
    1764547200
  ],
  "numDeployments": 1,
  "solcInputHash": "c673e363a950d162cc4e095a7d22b92a",
  "bytecode": "0x61010060405234801561001157600080fd5b5060405161099d38038061099d83398101604081905261003091610145565b828210156100ab5760405162461bcd60e51b815260206004820152603960248201527f45524332304c6f636b65643a20556e6c6f636b20636c696666206d757374206e60448201527f6f74206265206265666f726520756e6c6f636b20626567696e0000000000000060648201526084015b60405180910390fd5b818110156101215760405162461bcd60e51b815260206004820152603760248201527f45524332304c6f636b65643a20556e6c6f636b20656e64206d757374206e6f7460448201527f206265206265666f726520756e6c6f636b20636c69666600000000000000000060648201526084016100a2565b60609390931b6001600160601b03191660805260a09190915260c05260e052610190565b6000806000806080858703121561015b57600080fd5b84516001600160a01b038116811461017257600080fd5b60208601516040870151606090970151919890975090945092505050565b60805160601c60a05160c05160e05161079a61020360003960008181610179015281816101dc0152818161041a015261047801526000818161011f01526103c7015260008181609d0152818161045701526104a10152600081816101a0015281816102af0152610547015261079a6000f3fe608060405234801561001057600080fd5b50600436106100935760003560e01c8063904c66ec11610066578063904c66ec1461011a578063a8c7a08a14610141578063aad3ec9614610161578063e6e25d1014610174578063fc0c546a1461019b57600080fd5b8063239fd61114610098578063282d3fdf146100d257806360f3309b146100e757806371417b32146100fa575b600080fd5b6100bf7f000000000000000000000000000000000000000000000000000000000000000081565b6040519081526020015b60405180910390f35b6100e56100e0366004610692565b6101da565b005b6100bf6100f5366004610670565b6103c3565b6100bf610108366004610670565b60016020526000908152604090205481565b6100bf7f000000000000000000000000000000000000000000000000000000000000000081565b6100bf61014f366004610670565b60006020819052908152604090205481565b6100e561016f366004610692565b6104e4565b6100bf7f000000000000000000000000000000000000000000000000000000000000000081565b6101c27f000000000000000000000000000000000000000000000000000000000000000081565b6040516001600160a01b0390911681526020016100c9565b7f000000000000000000000000000000000000000000000000000000000000000042106102605760405162461bcd60e51b815260206004820152602960248201527f546f6b656e4c6f636b3a20556e6c6f636b20706572696f6420616c726561647960448201526820636f6d706c65746560b81b60648201526084015b60405180910390fd5b6001600160a01b038216600090815260208190526040812080548392906102889084906106de565b90915550506040516323b872dd60e01b8152336004820152306024820152604481018290527f00000000000000000000000000000000000000000000000000000000000000006001600160a01b0316906323b872dd90606401602060405180830381600087803b1580156102fb57600080fd5b505af115801561030f573d6000803e3d6000fd5b505050506040513d601f19601f8201168201806040525081019061033391906106bc565b61037f5760405162461bcd60e51b815260206004820152601a60248201527f546f6b656e4c6f636b3a205472616e73666572206661696c65640000000000006044820152606401610257565b6040518181526001600160a01b0383169033907f989eaa915cbb416ea3d6f9a63b1a3de51770c7674b11fe21ecdf76b4e1d139109060200160405180910390a35050565b60007f00000000000000000000000000000000000000000000000000000000000000004210156103f557506000919050565b6001600160a01b038216600090815260208181526040808320546001909252909120547f00000000000000000000000000000000000000000000000000000000000000004210610451576104498183610737565b949350505050565b8061049c7f00000000000000000000000000000000000000000000000000000000000000007f0000000000000000000000000000000000000000000000000000000000000000610737565b6104c67f000000000000000000000000000000000000000000000000000000000000000042610737565b6104d09085610718565b6104da91906106f6565b6104499190610737565b60006104ef336103c3565b9050808211156104fd578091505b336000908152600160205260408120805484929061051c9084906106de565b909155505060405163a9059cbb60e01b81526001600160a01b038481166004830152602482018490527f0000000000000000000000000000000000000000000000000000000000000000169063a9059cbb90604401602060405180830381600087803b15801561058b57600080fd5b505af115801561059f573d6000803e3d6000fd5b505050506040513d601f19601f820116820180604052508101906105c391906106bc565b61060f5760405162461bcd60e51b815260206004820152601a60248201527f546f6b656e4c6f636b3a205472616e73666572206661696c65640000000000006044820152606401610257565b6040518281526001600160a01b0384169033907ff7a40077ff7a04c7e61f6f26fb13774259ddf1b6bce9ecf26a8276cdd39926839060200160405180910390a3505050565b80356001600160a01b038116811461066b57600080fd5b919050565b60006020828403121561068257600080fd5b61068b82610654565b9392505050565b600080604083850312156106a557600080fd5b6106ae83610654565b946020939093013593505050565b6000602082840312156106ce57600080fd5b8151801515811461068b57600080fd5b600082198211156106f1576106f161074e565b500190565b60008261071357634e487b7160e01b600052601260045260246000fd5b500490565b60008160001904831182151516156107325761073261074e565b500290565b6000828210156107495761074961074e565b500390565b634e487b7160e01b600052601160045260246000fdfea2646970667358221220084bc5075d8f9ae56a126f570f44fc8bd3e9304221d3c24f782030193a2876b664736f6c63430008070033",
  "devdoc": {
    "details": "Time-locks tokens according to an unlock schedule.",
    "kind": "dev",
    "methods": {
      "claim(address,uint256)": {
        "details": "Claims the caller's tokens that have been unlocked, sending them to `recipient`.",
        "params": {
          "amount": "The amount to transfer. If greater than the claimable amount, the maximum is transferred.",
          "recipient": "The account to transfer unlocked tokens to."
        }
      },
      "claimableBalance(address)": {
        "details": "Returns the maximum number of tokens currently claimable by `owner`.",
        "params": {
          "owner": "The account to check the claimable balance of."
        },
        "returns": {
          "_0": "The number of tokens currently claimable."
        }
      },
      "constructor": {
        "details": "Constructor.",
        "params": {
          "_token": "The token this contract will lock",
          "_unlockBegin": "The time at which unlocking of tokens will begin.",
          "_unlockCliff": "The first time at which tokens are claimable.",
          "_unlockEnd": "The time at which the last token will unlock."
        }
      },
      "lock(address,uint256)": {
        "details": "Transfers tokens from the caller to the token lock contract and locks them for benefit of `recipient`.      Requires that the caller has authorised this contract with the token contract.",
        "params": {
          "amount": "The number of tokens to transfer and lock.",
          "recipient": "The account the tokens will be claimable by."
        }
      }
    },
    "version": 1
  },
  "userdoc": {
    "kind": "user",
    "methods": {},
    "version": 1
  },
  "storageLayout": {
    "storage": [
      {
        "astId": 12233,
        "contract": "contracts/TokenLock.sol:TokenLock",
        "label": "lockedAmounts",
        "offset": 0,
        "slot": "0",
        "type": "t_mapping(t_address,t_uint256)"
      },
      {
        "astId": 12237,
        "contract": "contracts/TokenLock.sol:TokenLock",
        "label": "claimedAmounts",
        "offset": 0,
        "slot": "1",
        "type": "t_mapping(t_address,t_uint256)"
      }
    ],
    "types": {
      "t_address": {
        "encoding": "inplace",
        "label": "address",
        "numberOfBytes": "20"
      },
      "t_mapping(t_address,t_uint256)": {
        "encoding": "mapping",
        "key": "t_address",
        "label": "mapping(address => uint256)",
        "numberOfBytes": "32",
        "value": "t_uint256"
      },
      "t_uint256": {
        "encoding": "inplace",
        "label": "uint256",
        "numberOfBytes": "32"
      }
    }
  }
}